:020000040800F2
:10000000286A00202903000885510008AB42000837
:10001000D54D0008F50800084988000800000000D8
:10002000000000000000000000000000690200085D
:10003000570B000800000000C50200081556000814
:100040004303000843030008430300084303000878
:100050004303000843030008430300084303000868
:100060004303000843030008430300084303000858
:10007000590A00084303000843030008430300082B
:10008000430300084303000843030008190900085C
:10009000F9080008090900084303000843030008A1
:1000A0004303000843030008430300084303000818
:1000B000F156000843030008430300084303000807
:1000C00043030008430300084303000843030008F8
:1000D000430300084303000843030008C15E00080F
:1000E00043030008430300084303000843030008D8
:1000F00043030008430300084303000843030008C8
:1001000043030008430300084303000843030008B7
:1001100043030008430300084303000843030008A7
:100120004303000843030008430300084303000897
:100130004303000843030008430300084303000887
:1001400043030008430300084303000889510008E3
:1001500043030008690A000843030008D55F00084C
:100160004303000843030008430300084303000857
:100170004303000843030008430300080000000095
:10018000430300084303000800F002F800F05CF8A5
:100190000AA090E8000C82448344AAF10107DA45E2
:1001A00001D100F051F8AFF2090EBAE80F0013F0D8
:1001B000010F18BFFB1A43F001031847FCC90000E8
:1001C0001CCA00000A444FF0000C10F8013B13F069
:1001D000070408BF10F8014B1D1108BF10F8015BA0
:1001E000641E05D010F8016B641E01F8016BF9D193
:1001F00013F0080F1EBF10F8014BAD1C0C1B09D1EA
:100200006D1E58BF01F801CBFAD505E014F8016B5B
:1002100001F8016B6D1EF9D59142D6D370470000ED
:100220000023002400250026103A28BF78C1FBD8FF
:10023000520728BF30C148BF0B6070471FB50CF094
:10024000D6FB1FBD10B510BD00F0BBF91146FFF77E
:10025000F5FF09F08BFD00F0D9F903B4FFF7F2FFC9
:1002600003BC00F0DDF900002C4B19680868B0E809
:10027000F04F80F30988BFF36F8F4FF0000080F3D9
:10028000118870470000000008480068006880F38B
:1002900008884FF0000080F3148862B661B6BFF39F
:1002A0004F8FBFF36F8F00DF00BF00BF08ED00E08E
:1002B000DFF80C00016841F470010160704700BF75
:1002C00088ED00E0EFF30980BFF36F8F134B1A68DE
:1002D0001EF0100F08BF20ED108A20E9F04F1060CB
:1002E00009B44FF0500080F31188BFF34F8FBFF374
:1002F0006F8F0AF019FF4FF0000080F3118809BCDE
:1003000019680868B0E8F04F1EF0100F08BFB0EC95
:10031000108A80F30988BFF36F8F70472C0000208C
:10032000EFF30580704700000948804709480047FF
:10033000FEE7FEE7FEE7FEE7FEE7FEE7FEE7FEE795
:10034000FEE7FEE704480549054A064B70470000F2
:10035000DD5600088901000828640020286A002072
:10036000286600202866002053EA020C00F069800D
:100370002DE9F04B4FF00006002B1FBFB3FA83F5B9
:1003800003FA05F424FA05F65E4012BF1643B2FAEA
:1003900082F502FA05F4C5F120051EBF22FA05FC1C
:1003A00044EA0C04203556EA044C4FEA144418BFC2
:1003B000641C4FF000084FF00009904271EB030CF1
:1003C00039D3002919BFB1FA81F701FA07F6B0FA5B
:1003D00080F700FA07F6C7F120071EBF20FA07FCD6
:1003E00046EA0C062037B6FBF4FCA7EB0507103FE6
:1003F00007F01F0BCBF120060CFA0BFB2CFA06F6CC
:1004000044BFB3460026202FA4BF5E464FF0000B2A
:100410005BEA060C08BF4FF0010B19EB0B09ABFBB5
:10042000027C48EB0608C01B06FB02CC0BFB03CC8E
:1004300071EB0C01C1E70B46024641464846BDE858
:10044000F08B13B54FF000004FF00001AFF30080C8
:10045000BDE81C407047032A40F2308010F0030CC6
:1004600000F0158011F8013BBCF1020F624498BF07
:1004700011F801CB00F8013B38BF11F8013BA2F1A4
:10048000040298BF00F801CB38BF00F8013B11F01F
:10049000030300F02580083AC0F0088051F8043BBF
:1004A000083A51F804CBA0E80810F5E7121D5CBF2C
:1004B00051F8043B40F8043BAFF30080D20724BF5F
:1004C00011F8013B11F801CB48BF11F8012B24BFF3
:1004D00000F8013B00F801CB48BF00F8012B704742
:1004E00010B5203AC0F00B80B1E81850203AA0E8CF
:1004F0001850B1E81850A0E81850BFF4F5AF5FEA03
:10050000027C24BFB1E81850A0E8185044BF18C9B5
:1005100018C0BDE810405FEA827C24BF51F8043B5C
:1005200040F8043B08BF7047D20728BF31F8023BB0
:1005300048BF11F8012B28BF20F8023B48BF00F844
:10054000012B70474FF0000200B5134694469646C3
:10055000203922BFA0E80C50A0E80C50B1F12001D6
:10056000BFF4F7AF090728BFA0E80C5048BF0CC084
:100570005DF804EB890028BF40F8042B08BF7047E2
:1005800048BF20F8022B11F0804F18BF00F8012B54
:10059000704770477047704710B500F00DF800685D
:1005A00010BD10B5044600F007F8046010BD00004F
:1005B00000487047C863002000487047C8630020A7
:1005C00070477546FFF7F4FFAE460500694653468F
:1005D00020F00700854618B020B5FFF7B3FEBDE850
:1005E00020404FF000064FF000074FF000084FF09A
:1005F000000B21F00701AC46ACE8C009ACE8C0092B
:10060000ACE8C009ACE8C0098D46704710B5044697
:10061000AFF300802046BDE81040FFF71EBE00008B
:1006200001491820ABBEFEE72600020010B50122EA
:100630001021024801F0AAFA10BD0000000002409B
:1006400010B500221021024801F0A0FA10BD0000F0
:10065000000002407047000010B501221146024818
:1006600001F094FA10BD00000004024010B5002211
:100670000121024801F08AFA10BD00000004024086
:10068000704710B5044603E04FF47A7000F006F8A6
:10069000201EA4F101018CB2F6D110BD70B5034645
:1006A00000BF00BF0020002200BF4FF0E0267569A8
:1006B000A82603FB06F44FF0E026B16910E04FF0E6
:1006C000E026B06988420BD0884202D20E1A32442A
:1006D00002E02E1A0E4432440146A24200D300E04A
:1006E000EDE700BF70BD10B50024FFF7B3FFFFF7C3
:1006F000C7FF08F069FF044308F0FAFF04432046EF
:1007000010BD00002DE9FC4105460E4617460020AD
:1007100000900190FFF794FF922000F0D1F806229C
:100720006946122000F0ACF8FFF780FF9DF8010049
:10073000000200B29DF8001040EA010400EE104AE9
:10074000B8EEC00A4C48D0ED000A20EE200A86ED33
:10075000000A9DF80300000200B29DF8021040EA72
:10076000010400EE104AB8EEC00A4348D0ED000A7A
:1007700020EE200A86ED010A9DF80500000200B275
:100780009DF8041040EA010400EE104AB8EEC00AD9
:100790003948D0ED000A20EE200A86ED020AFFF764
:1007A00065FF08226946002000F06AF8FFF754FF51
:1007B0009DF800000F2838D19DF80300000200B218
:1007C0009DF8021040EA010400EE104AB8EEC00A9B
:1007D0002A48D0ED000A20EE200A85ED000A9DF897
:1007E0000500000200B29DF8041040EA010400EE8A
:1007F000104AB8EEC00A2148D0ED000A20EE200AC7
:1008000085ED010A9DF80700000200B29DF8061070
:1008100040EA010400EE104AB8EEC00A1748D0EDD5
:10082000000A20EE200A85ED020AFFF709FFA22048
:1008300000F046F802226946222000F021F8FFF776
:10084000F5FE9DF80000C0009DF8011040EA61141B
:10085000B4F5806F02DBA4F5006004B200EE104A2C
:10086000F8EEC00AB4EE001AB3EE070A00EE810AF1
:1008700087ED000ABDE8FC81FC000020000100209B
:1008800070B506460C46154646F0800000F018F894
:1008900006E0552000F014F82070641C681EC5B2F4
:1008A000002DF6D170BD70B504460D4644F08000B1
:1008B00000F006F8552000F003F8287070BD000025
:1008C00001B582B04FF47A70012301AA02A9009009
:1008D000024802F06DFD9DF804000EBDCC0400201E
:1008E00070B505460C462846FFF7EAFF2046FFF79D
:1008F000E7FF70BD00BFFEE710B5024800F083FBC4
:1009000010BD0000A404002010B5024800F07BFBDD
:1009100010BD0000A404002010B5024800F073FBD5
:1009200010BD0000A4040020F8B507460C4615468B
:100930001E4640F2FF100D49086000208860C86024
:1009400008200861380A0A4908704F70200A887028
:10095000CC70280A08714D71300A8871CE716B46CF
:100960000A460249034800F04EF9F8BD0846002047
:1009700028010020A40400200346042B15D007DC26
:100980007BB1012B0ED0022B0DD0032B12D10BE02B
:10099000202B0BD0212B0AD0222B09D0232B09D1BD
:1009A00007E008E007E006E005E004E003E002E01D
:1009B00001E000E000BF00BF00207047002070474A
:1009C00010B500220449054805F0A5FD0449034877
:1009D00005F092FD002010BDC4540020E84700201F
:1009E000C44C002070B504460D462146034805F06E
:1009F00083FD024805F04CFD002070BDE847002053
:100A000010B503460C460021084610BD1CE00F49F6
:100A1000496800EE101ABDEEC00A10EE101A08B2B6
:100A200000231A461946FFF77FFF0848406801EE89
:100A3000100A0648006800EE900A0548806800EE3B
:100A4000100A04480AF0B6FBE1E70000BC440020AD
:100A5000A4440020FC05002010B5024800F0F2FD7F
:100A600010BD00004406002010B5024800F0EAFD69
:100A700010BD0000A4060020014608781038182395
:100A8000B0FBF3F20848805CC865032A05D9086802
:100A90006FF30900001D886503E008686FF3090023
:100AA0008865886D7047000074CA00080146002000
:100AB0008A6A8B69CBB932B1012A0DD0022A03D0E0
:100AC000032A10D10EE000BFCB6A03F08073B3F1AC
:100AD000807F00D1012007E0CB6AB3F1C07F00D155
:100AE000012001E000E000BF34E08B69B3F5005F56
:100AF0001AD132B1012A07D0022A03D0032A11D118
:100B00000AE000BF01200EE0CB6A03F08073B3F16E
:100B1000807F00D1012006E0CB6AB3F1C07F00D115
:100B2000012000E000BF15E032B1012A05D0022A01
:100B300004D0032A0CD103E000BF00BF012008E06D
:100B4000CB6A03F08073B3F1807F00D1012000E015
:100B500000BF00BF7047704772B600BFFEE70000DD
:100B600070B50A480468001D0568001D0668344415
:100B700054B108220649204603F038FD04220449F6
:100B80001031284603F032FD70BD0000107AFF1FBF
:100B9000920100200322002101200AF0F9FB0B49F9
:100BA0000860C9200AF092F90FE0094808F068FFD0
:100BB000084A0949064808F0F3FF064A064904486E
:100BC00008F09CFE024804F017F9EEE754010020FB
:100BD000A0460020500100204C01002010B5024624
:100BE00092F82030012B01D0022B06D11068406909
:100BF000084314686061002010BD506A40F48020F2
:100C000050620120F8E7F0B504460D461E4694F800
:100C1000207020688368A86800B900E000BF012F39
:100C200001D0022F7DD103F0806030B903F0006065
:100C300018B903F0805000287ED0C3F30161012071
:100C400088403060A86860B9B5F800C0E86840EA3C
:100C50004C5C206800F5C07000EB0110C0F800C0CB
:100C60000FE0D5E901C040EACC00D5F80CC040EA5D
:100C70000C00D4F800C00CF5C07C0CEB011CCCF8C7
:100C80000000D5F810C0206800F5C07000EB01101E
:100C9000C0F804C0287D01280ED1206800F5C0707E
:100CA00000EB0110406840F4807C206800F5C070C3
:100CB00000EB0110C0F804C0D079000692F806C01D
:100CC00040EA0C4092F805C040EA0C2092F804C0BB
:100CD00040EA0C00D4F800C00CF5C07C0CEB011C01
:100CE000CCF80C00D078000692F802C040EA0C4024
:100CF00092F801C040EA0C2092F800C040EA0C00D3
:100D0000D4F800C00CF5C07C0CEB011CCCF808003A
:100D1000206800F5C07000EB0110006840F0010C85
:100D200001E00FE008E0206800F5C07000EB011062
:100D3000C0F800C00020F0BD606A40F4001060629E
:100D40000120F8E7606A40F4802060620120F2E749
:100D5000F0B504460A4694F82050012D01D0022D2A
:100D60007ED1424901F50071086840F00100086039
:100D7000086820F47C5008600868566A40EA06203B
:100D80000860107D00F01F06012000FA06F3C86914
:100D90009843C861A1F50071D069C8B9D1F80C02B7
:100DA0009843C1F80C02908880B2968940EA0646C2
:100DB00001F51070576940F83760108880B21689C5
:100DC00040EA064601F51070576900EBC70046601F
:100DD000D069012819D1D1F80C021843C1F80C02CE
:100DE000908880B2168840EA064601F5107057696F
:100DF00040F83760908980B2168940EA064601F5CE
:100E00001070576900EBC7004660906928B9D1F8A7
:100E100004029843C1F8040204E0D1F80402184324
:100E2000C1F80402106928B9D1F814029843C1F836
:100E3000140204E0D1F814021843C1F81402106A35
:100E4000012804D1D1F81C021843C1F81C02D1F8C2
:100E5000000220F00100C1F800020020F0BDFFE711
:100E6000606A40F4802060620120F7E7006400407F
:100E7000704770B5044694F82050012D01D0022D22
:100E80007DD151B92068C06800F0030080B9606A64
:100E900040F400106062012070BD2068006900F01D
:100EA000030028B9606A40F4001060620120F3E793
:100EB000206800F5D87000EB0110006800F0040015
:100EC0009060906840B9206800F5D87000EB011080
:100ED0000068400D106007E0206800F5D87000EB56
:100EE00001100068C0085060206800F5D87000EB61
:100EF0000110006800F00200D060206800F5D87092
:100F000000EB0110406800F00F00082802D3082011
:100F1000106108E0206800F5D87000EB011040680F
:100F200000F00F001061206800F5D87000EB011090
:100F3000406800F47F40000A9061206800F5D87096
:100F400000EB01104068000C5061206800F5D8707B
:100F500000EB011080681870206800F5D87000EB75
:100F60000110806800F47F40000A5870206800F586
:100F7000D87000EB0110806800F47F0000E03CE0D6
:100F8000000C9870206800F5D87000EB01108068A4
:100F9000000ED870206800F5D87000EB0110C06812
:100FA0001871206800F5D87000EB0110C06800F4DB
:100FB0007F40000A5871206800F5D87000EB0110DE
:100FC000C06800F47F00000C9871206800F5D870AC
:100FD00000EB0110C068000ED87131B92068C068FC
:100FE00040F020002668F06005E02068006940F0CD
:100FF00020002668306100204EE7606A40F48020BF
:101000006062012048E72DE9F05F04460025206872
:1010100046692068D0F80490206887682068D0F876
:101020000CA02068D0F810B02068D0F8188006F026
:101030000100002855D007F00100C0B1012021684F
:10104000886007F0020018B1204600F08AFA0EE02E
:1010500007F0040010B145F4006508E007F008004F
:1010600010B145F4805502E0204600F079FA07F40B
:101070008070C8B14FF480702168886007F40070F8
:1010800018B1204600F06FFA0EE007F4806010B14E
:1010900045F4005508E007F4006010B145F48045C0
:1010A00002E0204600F05EFA07F48030C8B14FF449
:1010B00080302168886007F4003018B1204600F0C5
:1010C00054FA0EE007F4802010B145F4004508E022
:1010D00007F4002010B145F4803502E0204600F00E
:1010E00043FA06F0080038B10AF0100020B145F4C8
:1010F000007510202168C86006F0040040B10AF0B5
:10110000080028B108202168C860204600F0B8F91E
:1011100006F0020038B12068C06800F0030010B18A
:10112000204600F0AFF906F0400038B10BF0100097
:1011300020B145F4806510202168086106F0200088
:1011400040B10BF0080028B1082021680861204652
:1011500000F0D4F906F0100038B12068006900F002
:10116000030010B1204600F0CAF906F4003040B187
:1011700009F0100028B1102021684860204600F0D6
:10118000BFF906F4803040B109F0080028B108200A
:1011900021684860204600F0E9F906F4004088B371
:1011A00009F0040078B306F4807020B108F0010063
:1011B00008B145F0010506F4007020B108F0020006
:1011C00008B145F0020506F4806020B108F0040083
:1011D00008B145F0040506F40060A0B108F0700005
:1011E00088B108F07000402817D006DC10280BD01A
:1011F00020280CD0302819D10CE0502810D06028BD
:1012000014D110E01DE019E045F008050FE045F0AD
:1012100010050CE045F0200509E045F0400506E02A
:1012200045F0800503E045F4807500E000BF00BF95
:101230002068806920F0700021688861042021689E
:1012400048602DB1606A284360622046FFF710FEB7
:10125000BDE8F09F70B504460CB9012070BD94F84C
:10126000200010B9204600F0AFF82068006840F078
:1012700001002168086000F08FFC05460DE000F0D9
:101280008BFC401B0A2808D9606A40F40030606279
:10129000052084F820000120E0E72068406800F085
:1012A00001000028EBD02068006820F002002168CF
:1012B000086000F071FC05460DE000F06DFC401B7D
:1012C0000A2808D9606A40F400306062052084F87A
:1012D00020000120C2E72068406800F002000028DA
:1012E000EBD1207E012806D12068006840F0800004
:1012F0002168086005E02068006820F0800021680F
:101300000860607E012806D12068006840F0400037
:101310002168086005E02068006820F0400021682E
:101320000860A07E012806D12068006840F02000F7
:101330002168086005E02068006820F0200021682E
:101340000860E07E012806D12068006820F01000C7
:101350002168086005E02068006840F010002168FE
:101360000860207F012806D12068006840F008004E
:101370002168086005E02068006820F00800216806
:101380000860607F012806D12068006840F00400F2
:101390002168086005E02068006820F004002168EA
:1013A0000860D4E9020108432169084361690843E0
:1013B0006168491E08432168C861002060620120FD
:1013C00084F82000002049E710B586B004461421B7
:1013D00001A8FFF7B7F827492068884247D100BF26
:1013E000002000902448006840F000702249086006
:1013F0000846006800F00070009000BF00BF00BF0A
:10140000002000901C481038006840F008001A497D
:10141000103908600846006800F00800009000BF1E
:1014200000BF0320019002200290002003900320BF
:1014300004900920059001A9104800F0ADFA00229F
:101440000521132000F03CFC132000F025FC0022B5
:101450000621142000F034FC142000F01DFC0022B2
:101460000521152000F02CFC152000F015FC06B01D
:1014700010BD00000064004040380240000C0240F3
:101480007047000010B504461749206888422AD1E9
:10149000164B174A00211748FFF7EBFC1448006869
:1014A000A0F2012088B1032815D0042802D0052815
:1014B00017D104E00D49104808F0BEF912E00B49BD
:1014C0000D480A3008F0B8F90CE008490A480A301B
:1014D00008F0B2F906E0054907480A3008F0ACF90F
:1014E00000E000BF00BF10BD0064004038010020D4
:1014F000EC450020A4040020D4440020704770472D
:10150000704770B5044694F82000012822D10220CB
:1015100084F820002068006820F00100216808603D
:1015200000F03AFB05460DE000F036FB401B0A28B0
:1015300008D9606A40F400306062052084F8200019
:10154000012070BD2068406800F001000028EBD148
:101550006062F6E7606A40F4002060620120F0E714
:10156000704770477047704770477047704770B555
:101570000446A56D00F010FB064694F835000228DD
:1015800008D08020606500BF002084F8340000BFD0
:10159000012070BD2068006820F0160021680860F6
:1015A0002068406920F0800021684861206C08B9FB
:1015B000A06C28B12068006820F00800216808604D
:1015C0002068006820F001002168086010E000F049
:1015D000E3FA801B05280BD920206065032084F8DE
:1015E000350000BF002084F8340000BF0320D0E79E
:1015F0002068006800F001000028E8D194F85C1031
:101600003F208840A860012084F8350000BF0020FA
:1016100084F8340000BF00BFBBE7014691F83500F5
:10162000022803D08020486501207047052081F8FA
:1016300035000868006820F001000A68106000208A
:10164000F3E70000F8B50446002000908C480068DD
:101650004FF41651B0FBF1F7A56D2E6894F85C10AD
:1016600008208840304098B12068006800F00400ED
:1016700070B12068006820F004002168086094F8C8
:101680005C1008208840A860606D40F00100606533
:1016900094F85C1001208840304068B120684069AF
:1016A00000F0800040B194F85C1001208840A860F0
:1016B000606D40F00200606594F85C100420884082
:1016C000304068B12068006800F0020040B194F832
:1016D0005C1004208840A860606D40F004006065E4
:1016E00094F85C1010208840304078B3206800687F
:1016F00000F0080050B394F85C1010208840A860F7
:101700002068006800F4802080B12068006800F440
:10171000002028B9206CC8B12046216C884715E00C
:10172000A06C98B12046A16C88470FE02068006843
:1017300000F4807028B92068006820F00800216853
:101740000860206C10B12046216C884794F85C102A
:10175000202088403040002865D02068006800F0D4
:10176000100000285FD094F85C1020208840A8600A
:1017700094F83500052828D12068006820F016006C
:10178000216808602068406920F080002168486175
:10179000206C08B9A06C28B12068006820F008000F
:1017A0002168086094F85C103F208840A860012000
:1017B00084F8350000BF002084F8340000BF206D9D
:1017C00010B12046216D8847F8BD2068006800F4FC
:1017D000802080B12068006800F4002028B9606C87
:1017E00010B12046616C88471DE0E06BD8B12046FF
:1017F000E16B884717E02068006800F4807068B9E2
:101800002068006820F0100021680860012084F83A
:10181000350000BF002084F8340000BFE06B10B139
:101820002046E16B8847606D38B3606D00F00100C1
:10183000F0B1052084F835002068006820F0010030
:101840002168086000BF0098401C0090B84200D991
:1018500005E02068006800F001000028F3D100BF17
:10186000012084F8350000BF002084F8340000BF58
:10187000E06C10B12046E16C884700BFA4E700008F
:10188000240000202DE9F0410446002500F084F9F1
:10189000074614B90120BDE8F081606A00B100BFBD
:1018A000022084F8350000BF002084F8340000BF17
:1018B0002068006820F00100216808600AE000F05C
:1018C0006BF9C01B052805D920206065032084F82A
:1018D0003500E0E72068006800F001000028EED144
:1018E0002068056821480540D4E901010843E16802
:1018F00008432169084361690843A1690843E16914
:101900000843216A08430543606A042803D1D4E9E7
:101910000B0108430543206805602068456925F0F0
:101920000705606A0543606A04280DD1A06A054373
:10193000E06A48B12046FFF7B9F828B14020606559
:10194000012084F83500A6E7206845612046FFF7AE
:1019500093F8064694F85C103F208840B060002061
:101960006065012084F83500002094E73F8010F086
:1019700070B5044600F010F906462546681C10B103
:1019800004480078054400BF00F006F9801BA84217
:10199000FAD370BD20000020F8B502460B460025A2
:1019A000002400200021D6E0012606FA01F51E6879
:1019B00006EA0504AC4274D11E7906F00306012E36
:1019C00004D01E7906F00306022E13D190684F0052
:1019D0000326BE40B0434F00DE68BE4030439060F7
:1019E000506801268E40B0431E79C6F300168E4023
:1019F000304350601E7906F00306032E09D0D068EC
:101A00004F000326BE40B0434F009E68BE403043A7
:101A1000D0601E7906F00306022E13D1CF0802F122
:101A2000200656F827004E07F70E0F26BE40B0439B
:101A30004F07FF0E1E69BE403043CF0802F120065B
:101A400046F8270010684F000326BE40B0431E79B9
:101A500006F003064F00BE40304310605E6806F497
:101A60004036002E76D000BF002600963C4E3668E9
:101A700046F480463A4F3E603E46366806F480465D
:101A8000009600BF00BF374E8F0856F827008E071C
:101A9000370F0F26BE40B043334EB24202D100266C
:101AA00024E057E0314EB24201D101261EE0304E13
:101AB000B24201D1022619E02E4EB24201D10326D4
:101AC00014E02D4EB24201D104260FE02B4EB2425B
:101AD00001D105260AE02A4EB24201D1062605E0D0
:101AE000284EB24201D1072600E008268F073F0F9B
:101AF000BE4030431B4E8F0846F82700224E306808
:101B0000A0435E6806F4801606B120431E4E306086
:101B1000361D3068A0435E6806F4001606B1204307
:101B2000194E361D3060184E361F3068A0435E686F
:101B300006F4003606B12043134E361F3060361FC0
:101B40003068A0435E6806F4803606B120430E4E2E
:101B5000083E3060491C1029FFF426AFF8BD000094
:101B600044380240083801400000024000040240AE
:101B700000080240000C0240001002400014024025
:101B800000180240001C0240083C01400AB181617B
:101B900001E00B0483617047014800687047000052
:101BA00018000020034800680349097808440149E7
:101BB00008607047180000202000002010B50D4874
:101BC000006840F400700B4908600846006840F463
:101BD000806008600846006840F480700860032058
:101BE00000F0ACF80F2000F007F800F02BF8002010
:101BF00010BD0000003C024070B504460E4800785D
:101C00004FF47A71B1FBF0F00C490968B1FBF0F5C3
:101C1000284601F0F1FC08B1012070BD102C07D25C
:101C200000222146501E00F04BF80548046001E0F8
:101C30000120F2E70020F0E720000020240000202F
:101C40001C00002008B500BF00200090114800686B
:101C500040F480400F4908600846006800F4804066
:101C6000009000BF00BF00BF00200090081F006868
:101C700040F08050091F08600846006800F080505E
:101C8000009000BF00BF00220F21901E00F018F846
:101C900008BD0000443802400146084600280DDB1C
:101CA00000BF00BF00F01F0301229A4043099B00C0
:101CB00003F1E023C3F8002100BF00BF00BF70475D
:101CC0002DE9F05F80460D461646002706F054FECB
:101CD000074639462A46334601F00700C0F1070A95
:101CE000BAF1040F02D94FF0040A01E0C0F1070A6B
:101CF000D14600F1040ABAF1070F02D24FF0000AF0
:101D000001E0A0F1030AD4464FF0010A0AFA09FAE9
:101D1000AAF1010A0AEA020A0AFA0CFA4FF0010BC8
:101D20000BFA0CFBABF1010B0BEA030B4AEA0B04B9
:101D30002146404606F028FEBDE8F09F00BF00F0B7
:101D40000702064B19684FF6FF031940044B0B437B
:101D500043EA0221014B196000BF70470CED00E01F
:101D60000000FA0570470246106841620020704783
:101D7000F0B5034615461868446A21B944EA05409F
:101D80001E68B06219E01868806A04EB10440022F3
:101D900008E0186800F5827050F8220004EB104447
:101DA000501CC2B2481E9042F3D844EA0547186856
:101DB00000F582704E1E40F826700020F0BD10B570
:101DC0000446D4F8E00405F0A8F810BD70B5044648
:101DD0000D4605EBC50304F1140101EB8301CA684C
:101DE0002946D4F8E00404F08BFF70BD70B50446BA
:101DF0000D4605EBC50304F5157101EB8301CA68B7
:101E00002946D4F8E00405F003F870BD10B5044687
:101E1000D4F8E00405F084F810BD2DE9F041044643
:101E20000D4605F08000802808D105F00F0000EB7A
:101E3000C00104F1140000EB810607E005F00F007B
:101E400000EBC00104F5157000EB810631462068F7
:101E500006F0BCFA07463846BDE8F08170B5044686
:101E60000E4606F0800080280AD106F00F0000EB35
:101E7000C00104F1140000EB81050120687009E045
:101E800006F00F0000EBC00104F5157000EB8105B2
:101E90000020687006F00F00287000BF94F89404CA
:101EA000012801D1022070BD012084F8940400BFF4
:101EB0002946206805F018FE00BF002084F894042D
:101EC00000BF00BFEFE770B504460E4606F00F00F6
:101ED0002179884201D9012070BD06F08000802858
:101EE0000AD106F00F0000EBC00104F1140000EB72
:101EF00081050120687009E006F00F0000EBC001C9
:101F000004F5157000EB8105002068700020A870B2
:101F100006F00F00287000BF94F89404012801D146
:101F20000220D9E7012084F8940400BF29462068E4
:101F300005F0D8FF00BF002084F8940400BF00BF64
:101F4000CAE7024601F00F0000EBC00302F515706E
:101F500000EB8300406970472DE9F04705460E46C7
:101F600090461F464FF0000906F0800080280AD1F5
:101F700006F00F0000EBC00105F1140000EB810436
:101F80000120607009E006F00F0000EBC00105F5CC
:101F9000157000EB81040020607006F00F002070C7
:101FA000C8F30A00A0602771607808B120786083C8
:101FB000022F01D10020607100BF95F89404012820
:101FC00002D10220BDE8F087012085F8940400BF0B
:101FD0002146286805F094FC00BF002085F8940491
:101FE00000BF4846EEE72DE9F04105460E4617468C
:101FF000984606F00F0000EBC00105F5157000EBE8
:102000008104E760C4F8108000206061607006F011
:102010000F002070A879012800D1E761AA79214634
:10202000286805F0F3FF0020BDE8F08170B5044694
:102030000D4605F00F002179884201D9012070BDBD
:1020400005F0800080280AD105F00F0000EBC001E8
:1020500004F1140000EB81060120707007E005EB2D
:10206000C50104F5157000EB810600207070012099
:10207000B07005F00F00307000BF94F89404012890
:1020800001D10220DBE7012084F8940400BF31462F
:10209000206805F06EFF05F00F0028B9A17904F261
:1020A0009C42206805F0E6FE00BF002084F89404FE
:1020B00000BF00BFC3E72DE9F04105460E461746B5
:1020C000984606F00F0000EBC00105F1140000EB8C
:1020D0008104E760C4F81080002060610120607016
:1020E00006F00F002070A879012800D1E761AA79D5
:1020F0002146286805F08AFF0020BDE8F0812DE91F
:10210000FE4F0446D4F800B05E46206806F040FA60
:10211000002874D1206806F07AFA08B9BDE8FE8F6D
:1021200040F608008059C0F30D20C4F8D40420689C
:1021300006F06DFA00F00200022805D1206840691F
:1021400000F0020021684861206806F060FA00F0A3
:102150001000102845D12068806920F01000216807
:102160008861DBF8209009F00F0000EBC00104F556
:10217000157000EB810AC9F3434002281AD147F6D3
:10218000F07009EA000030B3C9F30A125846DAF8D1
:102190000C1006F041FAC9F30A11DAF80C000844F1
:1021A000CAF80C00C9F30A11DAF814000844CAF896
:1021B000140010E0C9F3434006280CD1082204F2B1
:1021C0009C41584606F028FAC9F30A11DAF81400BF
:1021D0000844CAF814002068806940F010002168A3
:1021E0008861206806F013FA00F40020B0F5002F93
:1021F0007BD10025206806F0DAF9029072E0E1E276
:10220000029800F00100002868D0E9B2206806F0CA
:10221000F1F9804608F0010048B1012106F530606F
:1022200000EB451081602946204602F0E7FF08F0E8
:102230000800082809D1082106F5306000EB451098
:1022400081602946204602F0A7FF08F01000102800
:1022500005D1102106F5306000EB4510816008F0D3
:102260000200022824D1DBF8140000F0800080284E
:1022700007D140F60400805940F4806140F6040024
:10228000815105EBC50104F5157000EB810A9AF840
:102290000300012806D100208AF80300E9B2204695
:1022A00000F09BFA022106F5306000EB45108160DA
:1022B00008F02000202805D1202106F5306000EB31
:1022C0004510816008F40050B0F5005F06D14FF46E
:1022D000005106F5306000EB451081606D1C0298DE
:1022E00040080290029800288AD1206806F08FF9F1
:1022F00000F48020B0F5802F7DD1206806F04DF9E4
:10230000029000259AE0029800F00100002873D0A6
:10231000E9B2206806F055F9804608F00100F0B3F4
:1023200005F00F0101208840019040F634008159EA
:10233000019821EA000040F634018851012106F598
:10234000106000EB45108160A079012824D105EBD5
:10235000C50104F1140000EB810005EBC502C16862
:1023600004F1140000EB82008068014405EBC50213
:1023700004F1140000EB8200C1606DB905EBC501EA
:1023800004F1140000EB8100006928B904F29C42BA
:102390000121206805F06EFDE9B2204600E001E071
:1023A000FFF714FD08F00800082805D1082106F5FC
:1023B000106000EB4510816008F01000102805D176
:1023C000102106F5106000EB4510816008F0400018
:1023D000402805D1402106F5106000EB45108160D2
:1023E00008F0020002281DD12946584606F093F84D
:1023F00005EBC50101E025E01CE004F1140000EB51
:10240000810A9AF80300012806D100208AF8030007
:10241000E9B2204600F0D8F9022106F5106000EB81
:102420004510816008F08000802803D129462046AD
:1024300002F086FF6D1C0298400802900298002866
:102440007FF461AF206806F0E2F800F00040B0F1E0
:10245000004F1CD140F60400805920F0010140F6E5
:102460000400815194F8CC04012807D1002084F89D
:10247000CC0400212046FFF775FC02E0204600F066
:10248000D1FA2068406900F0004021684861206866
:1024900006F0BDF800F40060B0F5006F0ED140F614
:1024A0000800805900F0010010B1204600F012FB36
:1024B0002068406900F4006021684861206806F0E7
:1024C000A6F800F48050B0F5805F7ED140F604009D
:1024D000805920F0010140F604008151102120684C
:1024E00006F019F8002732E04FF67F3106F510604C
:1024F00000EB4710816006F5106000EB47100068A4
:1025000020F4001106F5106000EB471001604FF653
:102510007F3106F5306000EB4710816006F53060D2
:1025200000EB4710006820F4001106F5306000EB66
:102530004710016006F5306000EB4710006840F07E
:10254000006106F5306000EB471001607F1C2079C8
:10255000B842C9D840F61C00805940F0011140F63D
:102560001C008151E07B70B1D6F8840840F00B016B
:10257000C6F8841840F64400805940F00B0140F63C
:10258000440081510FE040F61400805942F22B01C3
:10259000084340F614018851081F805940F00B0190
:1025A0004FF401608151D6F8000820F4FE60C6F8AF
:1025B0000008A17904F29C42206805F05BFC2068C9
:1025C000406900F48050216800E000E04861206824
:1025D00006F01DF800F40050B0F5005F17D1206838
:1025E00005F0F6F9206805F0C0FFE07100F04EFB41
:1025F0000090E2792068009906F090F8204600F0FB
:10260000F9F92068406900F40050216848612068A9
:1026100005F0FDFF00F00800082808D1204600F072
:1026200008FA2068406900F00800216848612068C5
:1026300005F0EDFF00F08000802818D1DBF81800CD
:1026400020F08000CBF8180001250DE005EBC50156
:1026500004F5157000EB8100C078012803D1E9B2C0
:102660002046FFF7DAFB6D1C2079A842EED82068DF
:1026700005F0CDFF00F48010B0F5801F2DD10125AD
:1026800022E006F5106000EB4510D0F8009005EB55
:10269000C50104F1140000EB81000079012812D17A
:1026A00009F00040B0F1004F0DD1012105EBC5024A
:1026B00004F1140000EB8200C170E8B240F0800128
:1026C0002046FFF7AAFB6D1C2079A842D9D82068C4
:1026D000406900F4801021684861206805F097FF88
:1026E00000F40010B0F5001F44D1012538E006F5D4
:1026F000306000EB4510D0F8009005EBC50104F503
:10270000157000EB81000079012828D109F0004004
:10271000B0F1004F23D194F8D40400F00100C9F3C4
:10272000004188421BD1012105EBC50204F515705B
:1027300000EB8200C170DBF8180040F08000CBF89D
:102740001800DBF8140000F0800040B940F60400E7
:10275000805940F4007140F60400815103E06D1C83
:102760002079A842C3D800BF2068406900F4001057
:1027700021684861206805F04AFF00F08040B0F110
:10278000804F08D12046FFF71AFB2068406900F00F
:10279000804021684861206805F039FF00F004009E
:1027A00004280FD12068D0F8049009F00400042810
:1027B00002D12046FFF72AFB2068406840EA090062
:1027C0002168486000BFA9E470B504460D4629465B
:1027D000D4F8E00404F010FC70BD70B504460D465A
:1027E0002946D4F8E00404F02BFC70BDF8B504468B
:1027F0000CB90120F8BD266894F8950428B900208A
:1028000084F89404204600F0A1F8032084F895048D
:10281000B6F1A04F01D10021A171206805F022FB83
:10282000207C8DF8000094E80F0005F0E5F820B159
:10283000022084F895040120DCE70021206805F0DF
:102840001BFF20B1022084F895040120D2E7002567
:1028500031E0012105EBC50204F1140000EB820018
:10286000417005EBC50104F1140000F8215005EB9F
:10287000C50100EB81004583002105EBC50204F191
:10288000140000EB8200017105EBC50204F1140095
:1028900000EB8200816005EBC50204F1140000EB3F
:1028A0008200C16005EBC50204F1140000EB820058
:1028B0000161681CC5B22079A842CADC00252AE063
:1028C000002105EBC50204F5157000EB8200417094
:1028D00005EBC50104F5157000F82150002105EB4A
:1028E000C50200EB8200017105EBC50204F515700D
:1028F00000EB8200816005EBC50204F5157000EB6A
:102900008200C16005EBC50204F5157000EB820082
:102910000161681CC5B22079A842D1DC207C8DF809
:10292000000094E80F0005F0A9F920B1022084F816
:10293000950401205EE700206074012084F895046E
:10294000206805F089F9002054E7000010B586B032
:102950000446142101A8FDF7F5FD2068B0F1A04F51
:1029600042D100BF002000902048006840F00100E4
:102970001E4908600846006800F00100009000BF92
:1029800000BF4FF4C050019002200290002003903D
:10299000032004900A20059001A91548FEF7FCFFCA
:1029A00000BF1248001D006840F080000F49091D5B
:1029B000086000BF002000900C481430006840F40C
:1029C00080400A49143108600846006800F48040DD
:1029D000009000BF00BF00BF002205214320FFF789
:1029E0006FF94320FFF758F906B010BD30380240A8
:1029F0000000024070B504460125E07908B90025C1
:102A000006E0E079022801D1012501E0FEF7A4F8F3
:102A10002946D4F8E00404F0BDFBD4F8E00404F047
:102A200063FB70BD10B50446D4F8E00404F093FBDA
:102A300010BD10B50446D4F8E00404F097FB10BDB7
:102A400070B504460D4600BF94F89404012801D1E6
:102A5000022070BD012084F8940400BF65742946EB
:102A6000206805F03DFE00BF002084F8940400BFFC
:102A700000BFEEE710B5044604F29C41D4F8E00430
:102A800004F09FFB10BD70B50446256800BF94F8A4
:102A90009404012801D1022070BD012084F894041F
:102AA00000BFE86800F0400030B1607B012803D12E
:102AB000A86B40F48030A863206805F0FDFC206816
:102AC00005F0B8F800BF002084F8940400BF00BFF0
:102AD000E2E7000010B50446D4F8E00404F0CEFBB1
:102AE0002068D0F8000E40F001002168C1F8000E07
:102AF000E07A28B10348006840F006000149086008
:102B000010BD000010ED00E070B504460D460CB994
:102B1000012070BD5848006800F00700A84209D2A3
:102B200055490D700846006800F00700A84201D022
:102B30000120EEE7207800F0020002281DD1207865
:102B400000F00400042805D14C48006840F4E0502F
:102B50004A490860207800F00800082805D1474855
:102B6000006840F46040454908604448006820F02F
:102B7000F000A168084341490860207800F0010096
:102B8000A8B36068012807D13C4808380068C0F342
:102B90004040B8B90120BCE76068022802D06068F4
:102BA000032807D1354808380068C0F3406048B9A9
:102BB0000120AEE7314808380068C0F3400008B98A
:102BC0000120A6E72D48006820F003006168084353
:102BD0002A490860FEF7E0FF064609E0FEF7DCFF41
:102BE000801B41F28831884202D9032091E707E037
:102BF0002248006800F00C006168B0EB810FEDD155
:102C00001D48006800F00700A84209D91A490D7054
:102C10000846006800F00700A84201D0012078E7CC
:102C2000207800F00400042807D11448006820F43C
:102C3000E050E168084311490860207800F008007E
:102C4000082808D10D48006820F46040216940EA56
:102C5000C1000A49086000F03FF808490968C1F35B
:102C60000311074A515CC8400649086006480068DD
:102C7000FEF7C2FF00204CE7003C0240083802404B
:102C80007CCA0008240000201C00002001480068C5
:102C9000704700002400002000B5FFF7F7FF04494B
:102CA0000968C1F38221034A515CC84000BD00009D
:102CB000083802408CCA000800B5FFF7E7FF044956
:102CC0000968C1F34231034A515CC84000BD0000AD
:102CD000083802408CCA00082DE9F047002400257E
:102CE0000026A1462548006800F00C0020B1042809
:102CF00005D008283AD105E0DFF8849039E0DFF804
:102D0000849036E01D48001F006800F03F041B4817
:102D1000001F006800F4800078B11A481749091FA5
:102D20000968C1F38811A0FB017001462246002307
:102D30003846FDF719FB05460EE011480F49091FFB
:102D40000968C1F38811A0FB0170014622460023E7
:102D50003846FDF709FB05460848001F0068C0F328
:102D60000140401C4600B5FBF6F902E0DFF8109088
:102D700000BF00BF4846BDE8F087000008380240A9
:102D80000024F400001BB700F8B504460CB901207C
:102D9000F8BD207800F00100002874D0F9480068E0
:102DA00000F00C0004280DD0F648006800F00C007C
:102DB000082813D1F348001F006800F48000B0F524
:102DC000800F0BD1EF4808380068C0F3404000285E
:102DD00059D06068002856D10120D9E700BF60684B
:102DE000B0F5803F08D1E7480838006840F48030EB
:102DF000E449083908601EE06068B0F5A02F0DD1E5
:102E0000E0480838006840F48020DE49083908604E
:102E10000846006840F4803008600CE0D948083863
:102E2000006820F48030D7490839086008460068F7
:102E300020F48020086000BF606890B1FEF7ACFE0F
:102E4000054606E0FEF7A8FE401B642801D90320D2
:102E50009EE7CC4808380068C0F340400028F1D015
:102E600011E0FEF799FE054606E0FEF795FE401BD1
:102E7000642801D903208BE7C24808380068C0F3F2
:102E800040400028F1D1207800F0020002285FD1F4
:102E9000BC48006800F00C0058B1BA48006800F067
:102EA0000C0008281CD1B748001F006800F48000FF
:102EB000B0B9B44808380068C0F3400020B1E068F9
:102EC000012801D0012063E7AE480838006820F0EF
:102ED000F800216940EAC100AA490839086037E0D2
:102EE000E06800B30120A8490860FEF755FE0546DA
:102EF00006E0FEF751FE401B022801D9032047E7F8
:102F0000A04808380068C0F340000028F1D09D4870
:102F10000838006820F0F800216940EAC1009949AA
:102F20000839086014E0002097490860FEF734FE75
:102F3000054606E0FEF730FE401B022801D90320BB
:102F400026E7904808380068C0F340000028F1D117
:102F5000207800F0080008282CD16069A8B1012071
:102F60008A490860FEF718FE054606E0FEF714FEE3
:102F7000401B022801D903200AE782486C30006810
:102F8000C0F340000028F1D014E000207F49086021
:102F9000FEF702FE054606E0FEF7FEFD401B022896
:102FA00001D90320F4E677486C300068C0F3400094
:102FB0000028F1D1207800F00400042870D1002707
:102FC00070483830006800F0805090B900BF002091
:102FD00000906C483830006840F0805069493831C2
:102FE00008600846006800F08050009000BF00BFF5
:102FF00001276748006800F48070B0B96448006831
:1030000040F4807062490860FEF7C6FD054606E0A0
:10301000FEF7C2FD401B022801D90320B8E65C4838
:10302000006800F480700028F2D000BFA06801287A
:1030300008D154486830006840F0010051496831B7
:1030400008601DE0A06805280DD14E486830006872
:1030500040F004004B49683108600846006840F0C1
:10306000010008600CE047486830006820F001006B
:103070004449683108600846006820F00400086090
:1030800000BFA068A8B1FEF787FD054609E0FEF77E
:1030900083FD401B41F28831884202D9032077E644
:1030A00026E0384868300068C0F340000028EED0C1
:1030B00013E0FEF771FD054608E0FEF76DFD401BCD
:1030C00041F28831884201D9032061E62D486830F9
:1030D0000068C0F340000028EFD1012F07D1294834
:1030E0003830006820F0805026493831086000BF31
:1030F000A069002845D02348006800F00C0008288B
:103100005DD0A069022845D100201F490866FEF75E
:1031100043FD054606E0FEF73FFD401B022801D9AE
:10312000032035E6174808380068C0F340600028DF
:10313000F1D1D4E907010843616A40EA8111012213
:10314000A06AC2EB500041EA00412C20005D41EA38
:1031500000600C49091F086001200B490866FEF752
:103160001BFD054606E0FEF717FD401B022801D9AE
:1031700003200DE6034808380068C0F340600028CB
:10318000F1D049E00838024000004742800E474233
:1031900000700040002021490866FEF7FDFC05464E
:1031A00006E0FEF7F9FC401B022801D90320EFE5F9
:1031B0001B480068C0F340600028F2D12CE0A069F1
:1031C000012800D1E4E51648001D0668A069012821
:1031D00020D006F48001E06981421BD106F03F0156
:1031E000206A814216D147F6C0703040616AB0EB68
:1031F000811F0FD106F440310122A06AC2EB5000BA
:10320000B1EB004F06D106F070612C20005DB1EBF0
:10321000006F01D00120BBE50020B9E50000474266
:103220000038024010B504460CB9012010BD606A98
:1032300038B96068B0F5827F00D105E00021E16116
:1032400002E00021216161610021A16294F8510036
:1032500028B9002084F85000204600F047F80220EA
:1032600084F851002068006820F040002168086060
:10327000A08800F48270218901F404410843A189E7
:1032800001F400610843217C01F002010843217D23
:1032900001F001010843218B01F400710843217FF3
:1032A00001F0380108432021095D01F08001084345
:1032B000218D01F400510843216808600421A069B0
:1032C00001EA104094F8241001F01001084321682D
:1032D00048602068C06920F400602168C86100204F
:1032E0006065012084F8510000209FE710B586B08A
:1032F0000446142101A8FDF725F9294920688842D0
:103300004CD100BF002000902648006840F4805057
:10331000244908600846006800F48050009000BF0F
:1033200000BF00BF002000901E481438006840F025
:1033300002001C49143908600846006800F00200C9
:10334000009000BF00BF00BF00200090084600684A
:1033500040F0010008600846006800F0010000909D
:1033600000BF00BF182001900220029000200390AF
:10337000032004900520059001A90B48FEF70CFBE3
:1033800080200190022002900020039003200490EE
:103390000520059001A90548FEF7FEFA06B010BD0C
:1033A0000030014044380240000402400000024066
:1033B0002DE9FE4F04460F4690461D460C9E012007
:1033C0000190FEF7E9FB814694F851B060680290E5
:1033D000AA46BBF1010F0BD00298B0F5827F04D151
:1033E000A06810B9BBF1040F02D00220BDE8FE8F27
:1033F0001FB1B8F1000F00D00DB90120F6E700BFF2
:1034000094F85000012801D10220EFE7012084F850
:10341000500000BF94F85100042802D0052084F821
:10342000510000206065C4F83880E587A5872763D0
:10343000E586A586206460642068006800F040008E
:10344000402805D02068006840F0400021680860EE
:10345000E068B0F5006F52D1606810B1BAF1010FA9
:1034600009D1206B00882168C860206B801C206314
:10347000E08E401EE0863BE02068806800F002009D
:10348000022810D1E08E70B1019801280BD1206B79
:1034900000882168C860206B801C2063E08E401E7D
:1034A000E086002001902068806800F0010068B18B
:1034B000E08F58B12068C068A16B0880A06B801CA9
:1034C000A063E08F401EE08701200190FEF764FBBF
:1034D000A0EB0900B0420BD3701C48B1012084F866
:1034E000510000BF002084F8500000BF03207DE79A
:1034F000E08E0028C0D1E08F0028BDD152E0606886
:1035000010B1BAF1010F09D1206B0078216808735E
:10351000206B401C2063E08E401EE0863CE020686B
:10352000806800F00200022810D1E08E70B101988E
:1035300001280BD1206B007821680873206B401C98
:103540002063E08E401EE0860020019020688068A5
:1035500000F0010068B1E08F58B12068C068A16B2D
:103560000870A06B401CA063E08F401EE087012024
:103570000190FEF711FBA0EB0900B04201D3701CD3
:1035800000B94EB9012084F8510000BF002084F832
:10359000500000BF032029E7E08E0028BFD1E08F54
:1035A0000028BCD14A463146204601F073FF40B1A5
:1035B0002020606500BF002084F8500000BF01207B
:1035C00014E7A06850B900BF002000902068C068D0
:1035D000009020688068009000BF00BF012084F840
:1035E000510000BF002084F8500000BF606D08B19A
:1035F0000120FBE60020F9E670B504462546681E6A
:10360000B0F1807F01D301200FE0681E4FF0E02170
:1036100048610F214FF0FF3005F0B6F900204FF060
:10362000E021886107200861002070BD7047704765
:1036300030B502460B4600BF92F83C00012801D18C
:10364000022030BD012082F83C0000BF022082F839
:103650003D00106844681068816824F070041868A0
:10366000044310684460184D1068A8421BD01068CD
:10367000B0F1804F17D0154D1068A84213D0144DEB
:103680001068A8420FD0134D1068A8420BD0124DFD
:103690001068A84207D0114D1068A84203D0104D01
:1036A0001068A84205D121F08001586801431068D4
:1036B0008160012082F83D0000BF002082F83C00BC
:1036C00000BF00BFBDE70000000001400004004053
:1036D00000080040000C0040000401400040014090
:1036E0000018004010B504460CB9012010BD94F834
:1036F0003D0028B9002084F83C00204600F026F860
:10370000022084F83D00211D206801F0F9FF01200E
:1037100084F8460000BF84F83E0001213F20015597
:10372000402001554120015500BF00BF012084F811
:10373000420043200155442001554520015500BF5A
:10374000012084F83D000020D0E7000038B5044691
:103750002068B0F1804F18D100BF002000901648BB
:10376000006840F00100144908600846006800F055
:103770000100009000BF00BF002205211C20FEF7C1
:103780009FFA1C20FEF788FA15E00C492068884251
:1037900011D100BF002000900748001D006840F4D0
:1037A00000300549091D08600846006800F4003033
:1037B000009000BF00BF38BD4038024000440140C7
:1037C000014691F83D00012801D0012070470220F8
:1037D00081F83D000868C06840F001000B68D860BF
:1037E0001A4B086898421BD00868B0F1804F17D078
:1037F000174B0868984213D0164B086898420FD0B0
:10380000154B086898420BD0144B0868984207D0B3
:10381000134B0868984203D0124B086898420CD1A9
:103820000868806800F00702062A0CD00868006863
:1038300040F001000B68186005E00868006840F07F
:1038400001000B6818600020C0E700000000014084
:103850000004004000080040000C0040000401404B
:1038600000400140001800402DE9F04104460D469B
:10387000002700BF94F83C00012802D10220BDE8D7
:10388000F081012084F83C0000BF022084F83D0054
:103890002068866826F0770626F47F4620688660D2
:1038A0002868502833D00CDC202850D004DC0028B5
:1038B0004BD0102851D149E0302849D040284CD174
:1038C00039E060282DD0702807D0B0F5805F03D094
:1038D000B0F5005F41D10DE041E0D5E902136A681F
:1038E000206801F07DFF2068866846F07706206832
:1038F000866034E0D5E902136A68206801F070FF41
:103900002068806840F480402168886027E0EA6889
:103910006968206802F054F85021206801F06BFFBC
:103920001DE0EA686968206802F05DF8602120689F
:1039300001F061FF13E0EA686968206802F040F86E
:103940004021206801F057FF09E000BF00BF00BF21
:103950002968206801F04FFF01E0012700BF00BF88
:10396000012084F83D0000BF002084F83C0000BF27
:10397000384684E7704770B504462068C5682068FB
:10398000066906F00200022819D105F0020002289B
:1039900015D1401F216808610120207720688069C7
:1039A00000F0030018B12046FFF7E4FF05E02046D1
:1039B00000F0C8F8204600F07CF90020207706F0DF
:1039C0000400042819D105F00400042815D1C043CF
:1039D00021680861022020772068806900F4407027
:1039E00018B12046FFF7C6FF05E0204600F0AAF810
:1039F000204600F05EF90020207706F00800082835
:103A000019D105F00800082815D1C04321680861C4
:103A1000042020772068C06900F0030018B1204618
:103A2000FFF7A8FF05E0204600F08CF8204600F0E4
:103A300040F90020207706F01000102819D105F079
:103A40001000102815D1C043216808610820207794
:103A50002068C06900F4407018B12046FFF78AFF63
:103A600005E0204600F06EF8204600F022F9002024
:103A7000207706F0010048B105F0010030B16FF089
:103A8000010021680861204600F014F906F080006A
:103A9000802809D105F08000802805D1C043216825
:103AA00008612046FFF7C2FD06F04000402809D11A
:103AB00005F04000402805D1C04321680861204638
:103AC00000F0F9F806F02000202809D105F02000C8
:103AD000202805D1C043216808612046FFF7A7FDD3
:103AE00070BD000010B586B00446142101A8FCF793
:103AF00029FD1149206888421CD100BF0020009098
:103B00000E48006840F020000C4908600846006834
:103B100000F02000009000BF00BF40200190022074
:103B200002900020039004900320059001A904480E
:103B3000FDF732FF06B010BD0044014030380240AE
:103B40000014024070472DE9F04104460D46164628
:103B5000002700BF94F83C00012802D10220BDE8F4
:103B6000F081012084F83C0000BF36B1042E1BD048
:103B7000082E31D00C2E5ED145E02946206801F098
:103B800043FE2068806940F0080021688861206851
:103B9000806920F0040021688861206880692969B3
:103BA00008432168886148E02946206801F064FEE6
:103BB0002068806940F4006021688861206880691D
:103BC00020F480602168886120688069296940EA62
:103BD00001202168886130E02946206801F08AFED2
:103BE0002068C06940F008002168C8612068C06989
:103BF00020F004002168C8612068C0692969084371
:103C00002168C86119E02946206801F0AFFE2068EC
:103C1000C06940F400602168C8612068C06920F470
:103C200080602168C8612068C069296940EA012074
:103C30002168C86101E0012700BF00BF00BF00206C
:103C400084F83C0000BF384689E710B504460CB93B
:103C5000012010BD94F83D0028B9002084F83C00F4
:103C6000204600F025F8022084F83D00211D206840
:103C700001F046FD012084F8460000BF84F83E00B4
:103C800001213F200155402001554120015500BF31
:103C900000BF012084F84200432001554420015513
:103CA0004520015500BF012084F83D000020D0E7E9
:103CB0007047704770477047704770472DE9F84F5D
:103CC0000446206805682068C668206847694FF088
:103CD0000009CA4605F00F09B9F1000F0AD105F035
:103CE000200038B106F0200020B1204601F0DEFEB1
:103CF000BDE8F88FB9F1000F7CD007F0010018B9CA
:103D000006F49070002875D005F0010030B106F47B
:103D1000807018B1606C40F00100606405F0040030
:103D200030B107F0010018B1606C40F0020060642F
:103D300005F0020030B107F0010018B1606C40F0EE
:103D40000400606405F0080048B106F0200010B9D6
:103D500007F0010018B1606C40F008006064606C0E
:103D6000002846D005F0200028B106F0200010B150
:103D7000204601F09BFE20684069C0F3801A606C09
:103D800000F0080010B9BAF1000F2DD0204601F064
:103D900047FE2068406900F04000402820D100BF65
:103DA00000BF2168143151E8001F21F04000216854
:103DB000143141E80002002AF3D100BFE06B50B19A
:103DC0007F48E16B0865E06BFDF727FC88B1E06B8D
:103DD000016D88470DE02046FFF76FFF09E009E01D
:103DE0002046FFF76AFF04E02046FFF766FF002049
:103DF00060647DE7206B012878D105F01000002871
:103E000074D006F010000028FAD000BF0020009007
:103E100020680068009020684068009000BF00BFE4
:103E20002068406900F04000402870D1E06B0068D5
:103E300040681FFA80F8B8F1000F58D0A08D4045B7
:103E400055DDA4F82E80E06BC069B0F5807F43D0CB
:103E500000BF00BF21680C3151E8001F21F48070C1
:103E600021680C3141E80002002AF3D100BF00BFF5
:103E700000BF2168143151E8001F21F001002168C2
:103E8000143141E80002002AF3D100BF00BF00BF97
:103E90002168143151E8001F21F0400021681431DD
:103EA00041E80002002AF3D100BF202084F842003C
:103EB0000020206300BF00BF21680C3151E8001FC3
:103EC00021F0100021680C3141E80002002AF3D1F2
:103ED00000BFE06BFDF74BFB02206063A08DE28D1D
:103EE000801A81B22046FFF7E7FE0EE052E0A08D77
:103EF00040450AD1E06BC069B0F5807F05D1022052
:103F00006063A18D2046FFF7D7FEF1E6FFE7A08DA5
:103F1000E18D401A1FFA80F8E08DD0B3B8F1000FA0
:103F200037D000BF00BF21680C3151E8001F21F4D9
:103F3000907021680C3141E80002002AF3D100BFE3
:103F400000BF00BF2168143151E8001F21F00100BB
:103F50002168143141E80002002AF3D100BF20207B
:103F600084F842000020206300BF00BF21680C31AC
:103F700051E8001F21F0100021680C3141E80002D7
:103F8000002AF3D100BF0220606341462046FFF7BC
:103F900093FEADE605F0800030B106F0800018B168
:103FA000204601F017FFA3E605F0400030B106F00F
:103FB000400018B1204601F069FD99E600BF97E680
:103FC0000F5A000810B504460CB9012010BDA069B5
:103FD00000B100E000BF94F8410028B9002084F847
:103FE0004000204600F02AF8242084F84100206890
:103FF000C06820F400502168C860204601F0D4FD5C
:104000002068006920F490402168086120684069B8
:1040100020F02A00216848612068C06840F4005000
:104020002168C86000206064202084F8410084F882
:1040300042000020606300BFC8E7000010B586B0F2
:104040000446142101A8FCF77DFA5E4920688842E5
:1040500059D100BF002000905B48006840F48020E8
:10406000594908600846006800F48020009000BFAD
:1040700000BF00BF0020009053481038006840F097
:1040800004005149103908600846006800F0040037
:10409000009000BF00BF4FF44060019002200290EA
:1040A00000200390032004900720059001A94748B1
:1040B000FDF772FC4648474908604FF000604860D1
:1040C000002144488160C1604FF48061016100219A
:1040D00041618161C1614FF440310162002141625F
:1040E000FDF7D0FB08B1FCF737FD00BF3948E063AE
:1040F000846300BF002205212720FDF7E1FD272072
:10410000FDF7CAFD5CE034492068884258D100BF01
:10411000002000902C48001D006840F020002A4933
:10412000091D08600846006800F02000009000BFEC
:1041300000BF00BF0020009023481038006840F006
:1041400040002149103908600846006800F040002E
:10415000009000BF00BF4FF4844001900220029005
:1041600000200390032004900820059001A91B481B
:10417000FDF712FC1A481B4908604FF020604860A8
:104180004021184881600021C1604FF480610161C5
:10419000002141618161C16101624162FDF772FBF1
:1041A00008B1FCF7D9FC00BF0E48A063846300BFD0
:1041B000002205214720FDF783FD4720FDF76CFD18
:1041C00006B010BD004800404038024000080240E0
:1041D00028600240440600200014014000180240FC
:1041E000A0640240A406002070472DE9F84F044661
:1041F0000E46174699464FF0000A94F841002028D1
:1042000050D106B117B90120BDE8F88F00206064D5
:10421000212084F84100FDF7BFFC8246A784E78493
:10422000A068B0F5805F04D1206910B90025B046C0
:1042300002E035464FF000081EE053460022802180
:104240002046CDF8009001F0F5FD20B1202084F843
:1042500041000320D8E745B9B8F80000C0F30800D2
:104260002168486008F1020803E028782168486066
:104270006D1CE08C401EE084E08C0028DDD15346AC
:10428000002240212046CDF8009001F0D3FD20B15E
:10429000202084F841000320B6E7202084F8410064
:1042A0000020B1E70220AFE7704700BFFEE7000043
:1042B00010B52DED048B514A51495248FCF722FAB2
:1042C00000201CE04F4901EB800191ED000ADFED79
:1042D0004E0A20EE200A4B4901EB800181ED000AD5
:1042E000474901EB800191ED000ADFED480A20EE1D
:1042F000200A434901EB800181ED000A401C03289C
:10430000E0DB404890ED010ADFED410A30EE600A43
:1043100080ED010A90ED020ADFED3E0A30EE600A00
:1043200080ED020A364890ED010ADFED3B0A30EEDF
:10433000600A80ED010A90ED000ADFED380A80EE98
:10434000201A374880ED001A2D4890ED010ADFED64
:10435000330A80EE201A324880ED011A284890ED89
:10436000020ADFED2E0A80EE201A2D4880ED021A97
:10437000244890ED000A10EE101A084608F0C6FA1C
:1043800041EC190B9FED270B53EC102B07F0C8FFE6
:1043900041EC180B07F04AFD2149C860194890ED1F
:1043A000010A10EE101A084608F0B0FA41EC190B99
:1043B0009FED1C0B53EC102B07F0B2FF41EC180BD8
:1043C00007F034FD164908610E4890ED020A10EE20
:1043D000101A084608F09AFA41EC190B9FED110BE0
:1043E00053EC102B07F09CFF41EC180B07F01EFD5F
:1043F0000B494861BDEC048B10BD0000A0000020FB
:10440000804400207444002058A08B39E7416B3A67
:104410007EB6C8BB58A00B3BB0FE0ABF00000045EB
:104420008C440020D508FD4CBD6E513F2DED088B0E
:104430004FF0FF316548006807F0F8F8C4E0FFF777
:1044400037FF634A6349644800F01AFB624890ED05
:10445000010AF8EE000A20EE200AD0ED030A20EE51
:10446000200AD0ED000AB0EE001A60EE810A90ED4D
:10447000021A00EE810A10EE101A084608F046FAF9
:1044800041EC1A0BB0EE4A0AF0EE6A0A04F090FA18
:10449000B0EE409AF0EE609A9FED500B53EC102B6B
:1044A00051EC190B07F0F4FC41EC180B07F0BEFCC3
:1044B0004C490860484890ED010AF8EE000A20EEE9
:1044C000200AD0ED010A20EE200AD0ED020AB0EE5B
:1044D000001A60EE810A90ED021A00EEC10AF7EEB2
:1044E000000A30EE200A10EE101A084608F00EFA04
:1044F00041EC1A0B384890ED020AF0EE000A20EE6B
:10450000200AD0ED030A20EE200AD0ED000AB0EE1A
:10451000001A60EE810A90ED011A00EE810A10EE99
:10452000101A084608F0F2F941EC1B0BB0EE4A1ADB
:10453000F0EE6A1AB0EE4B0AF0EE6B0A04F054FD8E
:10454000B0EE409AF0EE609A9FED240B53EC102BE6
:1045500051EC190B07F09CFC41EC180B07F066FCC2
:10456000204948601C4890ED001A21EE011AD0ED58
:10457000011A90ED012A01EE821AF7EE001AB0EE50
:10458000002A52EE011AF0EE610A90ED011AF0EEE7
:10459000001A21EE211AD0ED021A21EE211AD0EDD7
:1045A000001AB0EE002A61EE821A90ED032A01EEA5
:1045B000821AB0EE410A04F00FFEDFED0B0A30EE76
:1045C000200A084880ED020A39E700005401002063
:1045D0008044002074440020A400002000000060FB
:1045E000FB210940A4440020DB0F494030B50B46B5
:1045F000002100BF16E00A24B4EB107F05D9302457
:1046000004EB107403F8114005E0412404EB10742E
:104610000A3C03F81140000100254C00641C1D55A4
:104620004C1CE1B29142E6DB30BD000010B50F48F2
:104630000F4908600320486000210D488160C16077
:104640004FF4102101614FF4001141610021017606
:104650000121417600218176C17601774177FCF70F
:10466000F9FD08B1FCF778FA10BD000000640040C5
:10467000A404002008B500BF002000901648006880
:1046800040F48000144908600846006800F4800087
:10469000009000BF00BF00BF0020009008460068E7
:1046A00040F4001008600846006800F40010009014
:1046B00000BF00BF002205210C20FDF701FB0C20EC
:1046C000FDF7EAFA002205214520FDF7F9FA452019
:1046D000FDF7E2FA08BD00003038024000B59DB099
:1046E0001C22184916A8FBF7FBFE002116A805F0AE
:1046F000CFFB154908601C2212491C310FA8FBF79B
:10470000EFFE00210FA805F0C3FB104908601C2232
:104710000C49383108A8FBF7E3FE002108A805F092
:10472000B7FB0B4908601C220649543101A8FBF76E
:10473000D7FE002101A805F0ABFB064908601DB0BB
:1047400000BD000004CA000804000020080000208A
:104750000C0000201000002000B587B0142102A832
:10476000FBF7F0FE00BF002001904948006840F0D0
:104770004000474908600846006800F0400001908A
:1047800000BF00BF00BF002001900846006840F055
:10479000020008600846006800F00200019000BFB7
:1047A00000BF00BF002001900846006840F00100F3
:1047B00008600846006800F00100019000BF00BFDB
:1047C00000BF002001900846006840F00800086023
:1047D0000846006800F00800019000BF00BF00BF5D
:1047E000002001900846006840F004000860084678
:1047F000006800F00400019000BF00BF00BF00206F
:1048000001900846006840F0800008600846006893
:1048100000F08000019000BF00BF00BF00200190A9
:104820000846006840F0200008600846006800F074
:104830002000019000BF00BF002210211548FDF7A5
:10484000A5F9002201211448FDF7A0F910200290DB
:104850000120039000200490059002A90D48FDF767
:104860009BF8302002904FF48810039000200490B1
:1048700002A90A48FDF790F8012002900390002059
:104880000490059002A90448FDF786F807B000BD22
:10489000303802400000024000040240000802409C
:1048A00010B50F480F4908604FF48270486000212E
:1048B0000C488160C160022101610121416149020E
:1048C00081613821C16100210162416281620A2156
:1048D000C162FEF7A7FC08B1FCF73EF910BD00006D
:1048E00000300140CC04002000B587B01C21684690
:1048F000FBF728FE15481649086000204860002193
:104900001348816041F22F11C16000210161816172
:10491000FEF7E8FE08B1FCF71FF90D48FFF795F91F
:1049200008B1FCF719F96020009000200190029076
:104930000490002269460648FFF705F908B1FCF724
:104940000BF90348FFF7CEF807B000BD0044014063
:104950006C05002000B587B00020039004900590FE
:104960000690019002904FF08040144908600020AA
:10497000486000211148816041F22F11C16000217F
:1049800001618161FEF7AEFE08B1FCF7E5F84FF476
:104990008050039003A90948FEF766FF08B1FCF7B1
:1049A000DBF800200190029001A90448FEF740FEC8
:1049B00008B1FCF7D1F807B000BD000024050020C5
:1049C00010B50B480B4908600B48486000210948A6
:1049D0008160C1604FF48061016104214161002167
:1049E0008161C161FFF7EEFA08B1FCF7B5F810BDBF
:1049F00000480040B4050020A086010010B50B4817
:104A00000B4908604FF4E13048600021084881609C
:104A1000C16001610C21416100218161C161FFF729
:104A2000D1FA08B1FCF798F810BD0000001401405D
:104A3000FC05002010B500220D490E4802F01DF9BA
:104A400008B1FCF789F80C490A4802F058FC08B193
:104A5000FCF782F80949074801F042FD08B1FCF76C
:104A60007BF8044802F04EFD08B1FCF775F810BD64
:104A70005C010020E8470020D0010020AC010020AC
:104A800070B52DED108B84B004460D46164695ED9D
:104A9000000AF0EE408A95ED010AB0EE409A95EDDD
:104AA000020AF0EE409A96ED000AB0EE40BA96ED9A
:104AB000010AB0EE40AA96ED020AF0EE40AAB5EE69
:104AC000C0BAF1EE10FA09D1B5EEC0AAF1EE10FAB3
:104AD00004D1F5EEC0AAF1EE10FA7DD06BEE0B0A10
:104AE0004AEE0A0A4AEEAA0AB0EE600A05F010F988
:104AF000B0EE408A18EE100A07F008FFCDE9000179
:104B00009DED000B04F090FC8DED020B9FEDA70BCB
:104B100053EC102B9DED020B51EC100B07F0FEFC3B
:104B200003D204B0BDEC108B70BD2BEE080AB0EEC2
:104B300040BA2AEE080AB0EE40AA2AEE880AF0EE41
:104B400040AA94ED010AD4ED030A20EE200AD4ED28
:104B5000000A94ED021AB0EE40DA00EEC1DA94EDEC
:104B6000000AD4ED010A20EE200AD4ED020A94EDE9
:104B7000031AF0EE40DA40EE81DAD4ED000A94ED4B
:104B8000001AB6EE000A10EE810AD4ED030A94ED85
:104B9000031AB0EE40EA00EE81EA2AEE0E0AF0EEC9
:104BA00040EA4AEEEDEA2AEE8D0AB0EE40FA0BEE4C
:104BB0004EFA2BEE2D0AF0EE40FA4AEE4DFA7D4801
:104BC00090ED000AB5EEC00AF1EE10FA40DD90ED6E
:104BD000000A60EE2E0A00E062E0774890ED000ADD
:104BE0009FED761A00EE810A80ED000A714890ED83
:104BF000000A60EE0F0A724890ED000A9FED6F1AEE
:104C000000EE810A80ED000A6A4890ED000A60EE2D
:104C10002F0A6C4890ED000A9FED681A00EE810A99
:104C200080ED000A644890ED000A38EE800AF0EE4C
:104C3000408A634890ED000A39EE000AB0EE409ACF
:104C4000604890ED000A39EE800AF0EE409A0EE0DE
:104C50009FED5D0A584880ED000A9FED5B0A5848B9
:104C600080ED000A9FED580A564880ED000A57482B
:104C7000D0ED000AB0EE680A00EEAE0AF0EE408A0F
:104C8000D0ED000AB0EE490A00EE8F0AB0EE409A6D
:104C9000D0ED000AB0EE690A00EEAF0AF0EE409ADD
:104CA0009FED4B0A28EE800AF0EE408A9FED480AFD
:104CB00029EE000AB0EE409A9FED450A29EE800ADF
:104CC000F0EE409AD4ED00BA94ED01CAD4ED02CAD8
:104CD000B1EE4C0A20EE280A0CEEC90AD4ED030A04
:104CE00000EEE90AD4ED000A30EE200A84ED000A55
:104CF0002BEEA80A0CEEA90AD4ED030A00EEC90AAD
:104D0000D4ED010A30EE200A84ED010A2BEE890A67
:104D10000CEE690AD4ED030A00EEA80AD4ED020AEB
:104D200030EE200A84ED020A2BEEA90A0CEE090AE5
:104D30000CEEE80AD4ED030A30EE200A84ED030AF3
:104D4000D4ED000A60EEA00A94ED011AD4ED011A28
:104D500041EE210A94ED021AD4ED021A41EE210A25
:104D600094ED031AD4ED031A41EE210AB0EE600A65
:104D700004F0CEFFB0EE408A94ED000A20EE080A5F
:104D800084ED000A94ED010A20EE080A84ED010A80
:104D900094ED020A20EE080A84ED020A94ED030A5B
:104DA00020EE080A84ED030A00BFBAE60000000006
:104DB00000005940EC000020F00000206F12833A00
:104DC000F4000020F800002000000000E8000020AF
:104DD0006F12033A00BFFEE719B910EE102A026005
:104DE00009E0012907D1026800EE902A70EE800ADE
:104DF00010EE902A0260704710B52DED048B04462A
:104E000060480168084607F081FD41EC190B9FEDF1
:104E10005E4B9FED5F3B9FED602B9FED611BB0EE06
:104E2000490AF0EE690A04F0ECFFB0EE408AF0EEB9
:104E3000608A51EC180B06F0F9FF5B490860D4F862
:104E40007E10084607F062FD41EC190B9FED4E4BBA
:104E50009FED4F3B9FED502B9FED511BB0EE490A4C
:104E6000F0EE690A04F0CDFFB0EE408AF0EE608A01
:104E700051EC180B06F0DAFF4C4908600846D0EDFB
:104E8000000A494890ED000A494805F031F810EE53
:104E9000100A3C4988604748B0F9020001EE100A48
:104EA000B8EEC11AF0EE410A0846806800EE100A1A
:104EB000414805F021F910EE100A324948600846D1
:104EC000C168084607F022FD41EC190B9FED2E4BFF
:104ED0009FED2F3B9FED302B9FED311BB0EE490A2C
:104EE000F0EE690A04F08DFFB0EE408AF0EE608AC1
:104EF00051EC180B06F09AFF2B490860D4F80E11FC
:104F0000084607F003FD41EC190B9FED1F4B9FED89
:104F1000203B9FED212B9FED221BB0EE490AF0EEC6
:104F2000690A04F06EFFB0EE408AF0EE608A51EC40
:104F3000180B06F07BFF1D4908600846D0ED000AFB
:104F4000194890ED000A1A4804F0D2FF10EE100A3A
:104F50000C4948611748B0F90C0001EE100AB8EE90
:104F6000C11AF0EE410A0846406900EE100A1248E4
:104F700005F0C2F810EE100A02490861BDEC048B7E
:104F800010BD0000BC44002000000040FB2109408F
:104F900000000040FB2109C00000000000805640D6
:104FA00000000000008056C0D4000020D80000207F
:104FB0001C450020D4440020E844002010B52DED0D
:104FC000048B044614B9BDEC048B10BD5F48016826
:104FD000084607F09BFC41EC190B9FED5D4B9FEDE4
:104FE0005E3B9FED5F2B9FED601BB0EE490AF0EE3C
:104FF000690A04F006FFB0EE408AF0EE608A51ECD8
:10500000180B06F013FF5A490860D4F886100846BA
:1050100007F07CFC41EC190B9FED4D4B9FED4E3B97
:105020009FED4F2B9FED501BB0EE490AF0EE690A41
:1050300004F0E7FEB0EE408AF0EE608A51EC180B07
:1050400006F0F4FE4B4908600846D0ED000A4848D7
:1050500090ED000A484804F0CDFF10EE100A3B49DD
:1050600088604648B0F9020001EE100AB8EEC11A95
:10507000F0EE410A0846806800EE100A404805F04C
:105080003BF810EE100A314948600846C1680846EE
:1050900007F03CFC41EC190B9FED2D4B9FED2E3B97
:1050A0009FED2F2B9FED301BB0EE490AF0EE690A01
:1050B00004F0A7FEB0EE408AF0EE608A51EC180BC7
:1050C00006F0B4FE2A490860D4F81611084607F025
:1050D0001DFC41EC190B9FED1E4B9FED1F3B9FEDFF
:1050E000202B9FED211BB0EE490AF0EE690A04F077
:1050F00088FEB0EE408AF0EE608A51EC180B06F0A4
:1051000095FE1C4908600846D0ED000A184890ED4D
:10511000000A194804F06EFF10EE100A0B494861AE
:105120001648B0F9020001EE100AB8EEC11AF0EE0E
:10513000410A0846806800EE100A114804F0DCFFBE
:1051400010EE100A0149086100BF3CE7BC44002092
:1051500000000040FB21094000000040FB2109C085
:105160000000000000FFBF40000000000000000041
:10517000DC000020E000002084450020D444002012
:105180005045002000BFFEE710B50248FCF7B7FF0E
:1051900010BD0000C45C00202DE9F04704460D4618
:1051A00026683746D6F8408007F5306000EB45109A
:1051B000D0F80890104880450BD909F40040B0F5AC
:1051C000004F06D14FF4004107F5306000EB451069
:1051D00081602046FDF74EFC0748804508D9A0793C
:1051E000012805D104F29C420121206802F042FE10
:1051F0000020BDE8F08700000A30544F2DE9F04749
:1052000005460C46D5F800904E46D9F840A006F564
:10521000306000EB4410D0F80880A879012855D1FF
:1052200008F0080008280FD1434882450BD908F43C
:105230000040B0F5004F7BD14FF4004106F53060DF
:1052400000EB4410816073E008F02000202806D1B4
:10525000202106F5306000EB4410816068E008F022
:105260002800002864D1344882450CD908F4004055
:10527000B0F5004F07D14FF4004106F5306000EB68
:105280004410816054E004EBC40105F5157000EB97
:10529000810706F5306000EB4410396A0069C0F3FD
:1052A0001200081A786164B9386930B905F29C4275
:1052B0000121286802F0DEFD03E07969F8680844FE
:1052C000F860E1B22846FCF791FD31E01B488245C9
:1052D0001BD108F40040B0F5004F07D14FF4004156
:1052E00006F5306000EB4410816021E008F02000FA
:1052F000202805D1202106F5306000EB44108160A4
:10530000E1B22846FCF772FD12E06CB904EBC4016F
:1053100005F5157000EB8100006928B905F29C4283
:105320000021286802F0A6FDE1B22846FCF75EFDE8
:105330000020BDE8F08700000A30544F0A31544F76
:105340002DE9F84F07460E46D7F80090C84606EB01
:10535000C60107F1140000EB8104D4E9041088426F
:1053600002D90120BDE8F88FD4E90401451AA068EC
:10537000A84200D2A568E81C4FEA900A17E0D4E9D9
:105380000401451AA068A84200D2A568E81C4FEAAB
:10539000900AB879ABB2F2B200904846E16803F0E7
:1053A00031FAE0682844E06060692844606108F5EB
:1053B000106000EB4610806980B2504506D3D4E9F6
:1053C0000410884202D220690028D8D1D4E904010F
:1053D00088420ED806F00F01012000FA01FB40F6CA
:1053E000340050F8080020EA0B0040F6340141F880
:1053F00008000020B6E7000010B5234B1B685B696E
:1054000043F04003204C246863611F4B1B68DB683A
:1054100043F010031C4C2468E3601C4B1B681B68A2
:1054200023F00103194C2468236007E0174B1B6825
:105430001B6823F00103154C24682360134B1B6881
:105440001B6803F00103002BF0D1114B0F4C2468B3
:10545000A3600E4B1B68D8600C4B1B6819610B4B8B
:105460001B685A60094B1B681B6843F48023074C78
:1054700024682360054B1B681B6843F00103034C41
:105480002468236010BD0000B405002044060020FD
:10549000044800407CB504460E46154633460122BA
:1054A00002212046009500F039F828B1606D40F0E7
:1054B0002000606503207CBD164800681821B0FB01
:1054C000F1F01549B0FBF1F04FF47A7148430190C7
:1054D0006068B0F5827F0DD13346002280212046DE
:1054E000009500F01BF898B1606D40F020006065F9
:1054F0000320E0E700BF019800B908E00198401ED2
:10550000019020688068C0F3C0100028F3D100BF6C
:105510000020D0E72400002040420F002DE9F84F82
:1055200004460D4690461E46DDF82890FCF734FBF5
:10553000A0EB0900371AFCF72FFB82462C480068C5
:10554000C0F3CB307843009046E0701C002843D075
:10555000FCF722FBA0EB0A00B84200D2A7BB2068F0
:10556000406820F0E000216848606068B0F5827F04
:105570000DD1A068B0F5004F03D0A068B0F5806FE2
:1055800005D12068006820F0400021680860A06A0A
:10559000B0F5005F0DD100BF2068006820F4005016
:1055A000216808602068006840F4005021680860A5
:1055B00000BF012084F8510000BF002084F8500093
:1055C00000BF0320BDE8F88FFFE7009808B9002767
:1055D00002E00098401E0090206880682840A842A1
:1055E00001D1012000E000204045AED10020E9E7D4
:1055F0002400002030B501460A461378521C147866
:1056000043EA042030BDFFF715FA00BF012004F083
:105610002EFCFBE710B5FCF7C5FA06F0B9F9012836
:1056200001D005F09BFE10BD00B593B0302107A856
:10563000FAF788FF142102A8FAF784FF00BF0020C0
:1056400001902448006840F08050224908600846D4
:10565000006800F08050019000BF00BF00BF002034
:1056600001901D48006840F480401B4908600846CE
:10567000006800F48040019000BF00BF0120079047
:105680000004089002200D9041050E9106210F9113
:10569000A8211091022111910721129107A8FDF76D
:1056A00073FB08B1FBF758FA0F2002900220039019
:1056B000002004904FF4A05005904FF480500690C5
:1056C000052102A8FDF720FA08B1FBF745FA13B04F
:1056D00000BD0000403802400070004003480068F0
:1056E00040F47000014908607047000088ED00E058
:1056F00010B50248FEF73FF910BD00002405002058
:1057000010B502682B4B98420ED0B0F1804F0BD0F1
:10571000294B984208D0294B984205D0284B9842F3
:1057200002D0284B984203D122F070024B681A43F2
:10573000204B984220D0B0F1804F1DD01E4B984294
:105740001AD01E4B984217D01D4B984214D01D4BB7
:10575000984211D01C4B98420ED01C4B98420BD053
:105760001B4B984208D01B4B984205D01A4B9842CD
:1057700002D01A4B984203D122F44072CB681A43EC
:1057800022F080034C6943EA04028B68C3620B6811
:105790008362084B984202D00A4B984201D10B69B0
:1057A0000363036843F00403036001234361026061
:1057B00010BD00000000014000040040000800404F
:1057C000000C004000040140004001400044014042
:1057D0000048014000180040001C0040002000402C
:1057E00030B50C46816821F47F4142EA0325254308
:1057F0002943816030BD0A46816821F0700142F082
:10580000070319438160704730B5026A056A25F0C5
:10581000010505624368846924F0700424F00304E0
:105820000D682C4322F002028D682A43104DA842D5
:1058300000D103E00F4DA84206D100BF22F00802BC
:10584000CD682A4322F00402094DA84202D0094D36
:10585000A84207D123F4807323F400734D692B43CE
:105860008D692B43436084614D684563026230BD9E
:10587000000001400004014030B5026A056A25F0CD
:10588000100505624368846924F4E04424F44074FC
:105890000D6844EA052422F020028D6842EA0512D0
:1058A000124DA84200D103E0114DA84207D100BF1C
:1058B00022F08002CD6842EA051222F040020B4D30
:1058C000A84202D00A4DA84209D123F4806323F4F0
:1058D00000634D6943EA85038D6943EA85034360AC
:1058E00084614D688563026230BD000000000140A4
:1058F0000004014030B5026A056A25F4807505622E
:105900004368C46924F0700424F003040D682C4338
:1059100022F400728D6842EA0522124DA84200D19D
:1059200003E0114DA84207D100BF22F40062CD6808
:1059300042EA052222F480620A4DA84202D00A4DB2
:10594000A84209D123F4805323F400534D6943EA5C
:1059500005138D6943EA05134360C4614D68C5634F
:10596000026230BD000001400004014030B5036A0E
:10597000056A25F4805505624468C26922F4E04254
:1059800022F440720D6842EA052223F400538D6828
:1059900043EA0533084DA84202D0084DA84204D17D
:1059A00024F480444D6944EA85144460C2614D6822
:1059B0000564036230BD00000000014000040140A6
:1059C00030B50B461446026A056A25F001050562EA
:1059D000816921F0F00141EA041122F00A021A4320
:1059E0008161026230BD30B50B461446026A056A19
:1059F00025F010050562816921F4704141EA043106
:105A000022F0A00242EA03128161026230BD70B549
:105A10000446A56B0020E8852846FEF74EF970BDC8
:105A200000BF00BF02680C3252E8002F22F49071D0
:105A300002680C3242E80013002BF3D100BF00BF14
:105A400000BF0268143252E8002F22F00101026800
:105A5000143242E80013002BF3D100BF016B01297F
:105A60000ED100BF00BF02680C3252E8002F22F0B6
:105A7000100102680C3242E80013002BF3D100BF82
:105A8000202180F8421000210163704710B50446C0
:105A90002068C06820F040002168C860202084F899
:105AA00041002046FEF700FC002010BDF8B504467A
:105AB0000025002694F84200222873D1A068B0F592
:105AC000805F0BD1206948B9A66A20684068C0F39E
:105AD00008003080A06A801CA06214E0A56AA0685B
