:020000040800F2
:10000000186E002031030008CD7B0008055200085F
:100010001D780008F1150008C1B2000800000000BA
:100020000000000000000000000000007102000855
:10003000F118000800000000CD0200085D800008F3
:100040004B0300084B0300084B0300084B03000858
:100050004B0300084B0300084B0300084B03000848
:100060004B0300084B0300084B0300084B03000838
:100070005D1700084B0300084B0300084B03000802
:100080004B0300084B0300084B030008151600083B
:10009000F5150008051600084B0300084B0300087F
:1000A0004B0300084B0300084B0300084B030008F8
:1000B000598100084B0300084B0300084B0300085C
:1000C0004B0300084B0300084B0300084B030008D8
:1000D0004B0300084B0300084B0300083989000854
:1000E0004B0300084B0300084B0300084B030008B8
:1000F0004B0300084B0300084B0300084B030008A8
:100100004B0300084B030008698100084B030008FB
:100110004B0300084B0300084B0300084B03000887
:100120004B0300084B0300084B0300084B03000877
:100130004B0300084B0300084B0300084B03000867
:100140004B0300084B0300084B030008D17B000859
:100150004B0300086D1700084B0300084D8A000888
:100160004B0300084B0300084B0300084B03000837
:100170004B0300084B0300084B030008000000007D
:100180004B0300084B03000800F002F800F060F891
:100190000AA090E8000C82448344AAF10107DA45E2
:1001A00001D100F055F8AFF2090EBAE80F0013F0D4
:1001B000010F18BFFB1A43F001031847EC040100BC
:1001C0000C0501000A444FF0000C10F8013B13F03D
:1001D000070408BF10F8014B1D1108BF10F8015BA0
:1001E000641E05D010F8016B641E01F8016BF9D193
:1001F00013F0080F1EBF10F8014BAD1C0C1B09D1EA
:100200006D1E58BF01F801CBFAD505E014F8016B5B
:1002100001F8016B6D1EF9D59142D6D370470000ED
:100220000023002400250026103A28BF78C1FBD8FF
:10023000520728BF30C148BF0B6070471FB50FF091
:10024000D1FF9DE8030000F00BFF1FBD10B510BDEE
:1002500000F08AFF1146FFF7F1FF0CF00FFC00F0F1
:10026000A8FF03B4FFF7F2FF03BC00F0DFFF0000BC
:100270002C4B19680868B0E8F04F80F30988BFF389
:100280006F8F4FF0000080F311887047000000006E
:1002900008480068006880F308884FF0000080F389
:1002A000148862B661B6BFF34F8FBFF36F8F00DF64
:1002B00000BF00BF08ED00E0DFF80C00016841F46A
:1002C00070010160704700BF88ED00E0EFF3098026
:1002D000BFF36F8F134B1A681EF0100F08BF20ED8D
:1002E000108A20E9F04F106009B44FF0500080F3FD
:1002F0001188BFF34F8FBFF36F8F0DF0BBFD4FF031
:10030000000080F3118809BC19680868B0E8F04F54
:100310001EF0100F08BFB0EC108A80F30988BFF3FD
:100320006F8F70472C000020EFF3058070470000AE
:100330000948804709480047FEE7FEE7FEE7FEE779
:10034000FEE7FEE7FEE7FEE7FEE7FEE704480549B5
:10035000054A064B704700004581000889010008E6
:1003600018680020186E0020186A0020186A002003
:1003700070B405880E884468D1F804C05368B5424B
:1003800008D140884988884201BF11888D42518830
:10039000884203D070BC6FF00200704705FB00F18B
:1003A000880827D094ED001ADCED000A94ED010ACC
:1003B000DCED011A31EE201AD4ED020A70EE211A9A
:1003C0009CED020A83ED001AC3ED011A94ED031AA5
:1003D000DCED031A30EE800A401E71EE210A83ED37
:1003E000020A04F11004C3ED030A03F110030CF137
:1003F000100CD7D111F0030030D0B0F1004F30D243
:1004000000282BDD211F1B1FACF1040210F0010F8F
:100410000AD091ED010AD2ED010A091D121D30EE3C
:10042000200A83ED010A1B1D400817D091ED010A37
:10043000D2ED010A401E30EE200A83ED010A91ED53
:10044000020AD2ED020A01F1080102F1080230EEBF
:10045000200A83ED020A03F10803E7D170BC0020F3
:100460007047B4EC010A401EFCEC010A30EE200A91
:10047000A3EC010AF5D1F1E70180428043607047A7
:100480002DE9F34F84B004984068009048680190CB
:100490000498B0F800E04588DFEDFE0A00200290E5
:1004A000B0EE600AAE4506D108884988884204BF8C
:1004B0007146864504D06FF0020006B0BDE8F08FAB
:1004C00001985FEA010C18BFB7EE001A3DD000BFDB
:1004D000BEEB0C0117D0B1F1004F80F01F82002954
:1004E00011DD021F11F0010F1CBFC2ED010A121D28
:1004F0004B1006D0C2ED010AC2ED020A08325B1EA3
:10050000F8D100EB8100BCF10102A0EC011A19D076
:10051000B2F1004F80F00882002A13DD031F12F0B1
:10052000010F1CBFC3ED010A1B1D511008D000BFF5
:10053000C3ED010AC3ED020A491E03F10803F7D116
:1005400000EB8200BCF1010CC2D14FF00008039512
:10055000002D14BFB0EE602A002000F0BF8100BF64
:10056000009908FB05F001EB800B0199DBED002AF7
:1005700001EB80000346F0EE421AC64552D9AEEBBD
:100580000802ABEB850112F0010F17D001EB8501DA
:1005900091ED000AB5EEC00AF1EE10FA07DDB4EEF7
:1005A000E10AF1EE10FA09DDF0EE401A06E0B1EED4
:1005B000400AF4EEC01AF1EE10FAF5D3521031D021
:1005C00001EB850C9CED000AB5EEC00AF1EE10FAC5
:1005D00005DDB4EEE10AF1EE10FA09DD06E0B1EE58
:1005E000400AF4EEC01AF1EE10FA01D2F0EE401A11
:1005F00001EBC50191ED000AB5EEC00AF1EE10FA6B
:1006000005DDB4EEE10AF1EE10FA09DD06E0B1EE27
:10061000400AF4EEC01AF1EE10FA01D2F0EE401AE0
:10062000521ECDD1F5EEC01AF1EE10FA00F0738132
:10063000F5EEC02A0126F1EE10FA0099D4BFB1EE12
:10064000620AB0EE620AB4EE610AF1EE10FA1CBF63
:10065000AEEB0802B2F1010C47D005FB08F201EB4A
:10066000820292ED001A00BFB0EE410A05FB06F4CB
:10067000B5EEC00A00EB8404F1EE10FACCBFF0EE48
:10068000400AF1EE400AF4EE610AF1EE10FA28D1C8
:10069000B5EB080C11D0BCF1004F7DD2BCF1000FBE
:1006A0000BDD00BF92ED000AD1ED000ABCF1010C98
:1006B000E2EC010AA1EC010AF4D129000ED0B1F15B
:1006C000004F6AD2002909DD94ED000AD0ED000A3E
:1006D000491EE4EC010AA0EC010AF5D101200290C8
:1006E0000BE0761CBCF1010CBED10298012804D0AD
:1006F000F5EEC02AF1EE10FA7ED09BED000AB5EBC4
:1007000008009A465946064622D0B0F1004F74D2EE
:1007100000281DDD091F10F0010F06D0F0EE400A81
:1007200080EEA01A81ED011A091D401010D000BF03
:10073000D1ED010A401E80EE801A81ED011A91ED83
:10074000021AC1EE000AC1ED020A01F10801EFD15F
:10075000280026D0B0F1004F7ED2002821DDAAF17A
:10076000040110F0010F06D0D1ED010A80EE801ACD
:1007700081ED011A091D401013D000BFD1ED010A0F
:10078000401E80EE801A81ED011AD1ED020A80EE42
:10079000801A81ED021A01E0CBE0D6E001F10801F8
:1007A000ECD1DDE900124FF000095FEA0E0773D0CB
:1007B000C14504BF01EB860102EB850274D091EDC7
:1007C000000ADC465046331E35D01C46B6F1004FB9
:1007D0007ED2002C2FDD0B1FABF1040C16F0010FA5
:1007E0000FD0F0EE400ADCED011AB0EE601A00EE18
:1007F000E11A83ED011A01E08DE0B1E01B1D0CF15F
:10080000040C741015D000BFD3ED010A9CED011A41
:1008100040EE410AC3ED010AD3ED020A9CED021A33
:100820000CF1080C40EE410AC3ED020A0833641EC5
:10083000EAD101EB86012B0036D0B3F1004F72D222
:10084000002B31DDA2F1040CAAF1040013F0010F1A
:100850000CD0DCED010A00E08BE090ED011A001DE8
:1008600040EE410ACCED010A0CF1040C5C1019D0E9
:10087000DCED010A90ED011A40EE410ACCED010ACF
:10088000DCED020A90ED021A083040EE410ACCED90
:10089000020A03E0000000000DE005E0641E0CF118
:1008A000080CE5D102EB830201EB88017F1E09F100
:1008B00001097FF47DAF009808F10108001D009048
:1008C0000398401E03907FF44BAE0299012900E08B
:1008D00058E004BF06B0BDE8F08F00BFB5EEC00A17
:1008E000F1EE10FA7FF4E9AD04990EFB05F3002B4D
:1008F0004A684FF000010BD902EB810C9CED000A15
:10090000B5EEC00AF1EE10FA02D1491C8B42F3D8C1
:100910008B427FF4D2AD6FF00400CEE5E0EC010A2B
:10092000491EFBD1EFE538E0E0EC010A521EFBD195
:1009300008E692ED000AD1ED000ABCF1010CE2ECF0
:10094000010AA1EC010AF4D1B7E694ED000AD0ED5A
:10095000000A491EE4EC010AA0EC010AF5D1BDE64B
:10096000D1ED000A401E80EE801AA1EC011AF7D1E9
:10097000EEE6D3ED000A401E80EE801AA3EC011AC9
:10098000F7D10EE7BCEC011AD1ED000A5B1E40EE78
:10099000410AE1EC010AF5D14DE7B0EC011AD2EDC4
:1009A000000A5B1E40EE410AE2EC010AF5D17BE74A
:1009B0002DE9F04F82B04668536801930588478857
:1009C0004B88002000900888874201BFB2F800C021
:1009D0006545528893421EBF6FF0020002B0BDE829
:1009E000F08F9FED412A4FEA970EC7F3400B00BFEF
:1009F000DDE9000202EB800A4A6898464FF00009E0
:100A0000B0EE420AB4465FEA0E0025D092ED001A1D
:100A1000DCED001A02EB8302DCED010A01EE810A33
:100A200092ED001A02EB8302401ED2ED001A02EB97
:100A3000830200EE810A9CED021ADCED030A000439
:100A40000CF1100C000C01EE210A92ED001A02EBE1
:100A5000830200EE810AD9D117F0030026D0ACF151
:100A60000404A2EB830210F0010F08D002EB830212
:100A7000D4ED010A92ED001A241D00EE810A5FEA0E
:100A80000B0013D002EB830CD4ED010A9CED001A8D
:100A900002EBC302401E00EE810AD4ED020A92ED81
:100AA000001A04F1080400EE810AEBD109F10100FB
:100AB000AAEC010A1FFA80F9486800EB8902A8F144
:100AC00001001FFA80F8B8F1000F99D1009806EBE9
:100AD0008706184480B20090681E05042D0C87D14B
:100AE00002B00020BDE8F08F0000000070B405885F
:100AF0000E884468D1F804C05368B54208D14088D4
:100B00004988884201BF11888D425188884203D0AC
:100B100070BC6FF00200704705FB00F1880827D019
:100B200094ED001ADCED000A94ED010ADCED011AE7
:100B300031EE601AD4ED020A70EE611A9CED020AE1
:100B400083ED001AC3ED011A94ED031ADCED031ACC
:100B500030EEC00A401E71EE610A83ED020A04F114
:100B60001004C3ED030A03F110030CF1100CD7D1EC
:100B700011F0030030D0B0F1004F30D200282BDD4F
:100B8000211F1B1FACF1040210F0010F0AD091EDE0
:100B9000010AD2ED010A091D121D30EE600A83ED33
:100BA000010A1B1D400817D091ED010AD2ED010A80
:100BB000401E30EE600A83ED010A91ED020AD2ED8B
:100BC000020A01F1080102F1080230EE600A83ED29
:100BD000020A03F10803E7D170BC00207047B4ECAF
:100BE000010A401EFCEC010A30EE600AA3EC010A87
:100BF000F5D1F1E72DE9F04F02884768B0F802809F
:100C00004888D1F8049082B04FF0000A164682421C
:100C100007BF098888456FF0020002B018BFBDE821
:100C2000F08F4FEA980B02EB42000190C8F34000AE
:100C3000CDF8000009EB8A01BBF1000F33D0019819
:100C400001EB820C01EB80043B46E64601EBC2055A
:100C50004FEA0B0093ED000A401E81ED000A93ED70
:100C6000010A01EB02118CED000A93ED020A0CEB74
:100C7000021C85ED000A93ED030A05EB021584EDD5
:100C8000000A04EB021403F11003E3D10EEB82001F
:100C900000EB820000EB8201ABF10100504307EB57
:100CA0000B1701EB001118F0030C21D03B1FA1EB37
:100CB00082011CF0010F06D093ED010A01EB8201C5
:100CC0001B1D81ED000A009880B100BF93ED010A61
:100CD00001EB820401EBC20184ED000A93ED020AEC
:100CE000401E81ED000A03F10803EFD107EB8C07EA
:100CF0000AF101001FFA80FA701E0604360C99D121
:100D000002B00020BDE8F08F70B5064600F08CF907
:100D1000056806F10B0020F00704B4429CBF0020D8
:100D200070BD2B466A68BAB11068A04210D304F1B6
:100D3000080188423CBF5068586007D351681019B9
:100D400041601168091B016058601460101D70BD7E
:100D500013465268002AE7D12146284600F06CF974
:100D60000028DED170BD70B50446051F00F05CF9A7
:100D70000068002C14BF446870BD002C18BFAC4242
:100D80003CBF20466468F8D301680A18AA4218BF1D
:100D9000456003D12A68054611440160286841195D
:100DA000A1421CBF6C6070BD616869602168084425
:100DB000286070BD53EA020C00F069802DE9F04B09
:100DC0004FF00006002B1FBFB3FA83F503FA05F4BA
:100DD00024FA05F65E4012BF1643B2FA82F502FA13
:100DE00005F4C5F120051EBF22FA05FC44EA0C04F7
:100DF000203556EA044C4FEA144418BF641C4FF0E7
:100E000000084FF00009904271EB030C39D3002920
:100E100019BFB1FA81F701FA07F6B0FA80F700FAC4
:100E200007F6C7F120071EBF20FA07FC46EA0C06AA
:100E30002037B6FBF4FCA7EB0507103F07F01F0BAC
:100E4000CBF120060CFA0BFB2CFA06F644BFB34696
:100E50000026202FA4BF5E464FF0000B5BEA060C75
:100E600008BF4FF0010B19EB0B09ABFB027C48EB01
:100E70000608C01B06FB02CC0BFB03CC71EB0C017C
:100E8000C1E70B46024641464846BDE8F08B13B524
:100E90004FF000004FF00001AFF30080BDE81C40B0
:100EA0007047032A40F2308010F0030C00F01580E8
:100EB00011F8013BBCF1020F624498BF11F801CB5D
:100EC00000F8013B38BF11F8013BA2F1040298BFC2
:100ED00000F801CB38BF00F8013B11F0030300F02C
:100EE0002580083AC0F0088051F8043B083A51F8D0
:100EF00004CBA0E80810F5E7121D5CBF51F8043BD5
:100F000040F8043BAFF30080D20724BF11F8013B47
:100F100011F801CB48BF11F8012B24BF00F8013BA9
:100F200000F801CB48BF00F8012B704710B5203AFC
:100F3000C0F00B80B1E81850203AA0E81850B1E892
:100F40001850A0E81850BFF4F5AF5FEA027C24BF48
:100F5000B1E81850A0E8185044BF18C918C0BDE83F
:100F600010405FEA827C24BF51F8043B40F8043B08
:100F700008BF7047D20728BF31F8023B48BF11F8BD
:100F8000012B28BF20F8023B48BF00F8012B704717
:100F90004FF000020429C0F0128010F0030C00F0A2
:100FA0001B80CCF1040CBCF1020F18BF00F8012B20
:100FB000A8BF20F8022BA1EB0C0100F00DB85FEAEE
:100FC000C17C24BF00F8012B00F8012B48BF00F8BA
:100FD000012B70474FF0000200B513469446964629
:100FE000203922BFA0E80C50A0E80C50B1F120013C
:100FF000BFF4F7AF090728BFA0E80C5048BF0CC0EA
:101000005DF804EB890028BF40F8042B08BF704747
:1010100048BF20F8022B11F0804F18BF00F8012BB9
:10102000704770477047704700487047C06700209E
:10103000704770477047704738B504460A4600202D
:101040006946AFF30080002808BF38BD024600990A
:10105000204600F04FF8012038BD012000F07CB898
:10106000F8B5AFF30080054600200C46102000BF05
:101070000646A819A0420DD9324669460020AFF3B2
:101080000080070008BF00F067F80098A04218BF72
:101090000546C419FFF7C8FF05600746F01D20F09C
:1010A00007004619284600F00AF8B44208BFF8BD08
:1010B000A21B31463868BDE8F84000F01BB800219B
:1010C0000160C0E9011070471020704710B500F0B2
:1010D0000DF8006810BD10B5044600F007F8046074
:1010E00010BD000000487047B867002000487047F6
:1010F000B8670020034640688C46002818BF884225
:101100003CBF03464068F8D318681844884207D0AB
:101110000CF1030020F00700001D411A521A01468D
:10112000081D0A60FFF71FBE1FB584B000200A9C8F
:1011300006AB04AA02A90094AFF3008018B1DDE960
:10114000020108B010BD0348204000F040F8002024
:101150000146F6E70000207C10B500F03FF8BDE83E
:10116000104000F02FB870477546FFF7BBFFAE4642
:1011700005006946534620F00700854618B020B5A3
:10118000FFF7E4F8BDE820404FF000064FF00007FD
:101190004FF000084FF0000B21F00701AC46ACE81F
:1011A000C009ACE8C009ACE8C009ACE8C0098D468C
:1011B000704710B50446AFF300802046BDE81040EC
:1011C000FFF74FB8002801D000F030B8704710B5D5
:1011D00000F04CF8BDE81040FFF7F4BF10B501284F
:1011E00005D0002103A000F027F8012010BD09A1BF
:1011F000F8E7000053494752544D454D3A204F758A
:1012000074206F662068656170206D656D6F7279FE
:10121000000000003A2048656170206D656D6F72B6
:101220007920636F727275707465640001491820CB
:10123000ABBEFEE72600020070B505460C460A204C
:1012400000E06D1C00F068F835B128780028F8D16E
:1012500002E0641C00F060F814B120780028F8D196
:10126000BDE870400A2000F057B8000010B5022811
:1012700003D0410103D50DA112E0002010BD0101F2
:1012800001D50FA10CE0C10001D511A108E081003A
:1012900001D512A104E0400001D513A100E0002116
:1012A00015A0FFF7C9FF012010BD0000496E76614F
:1012B0006C6964204F7065726174696F6E00000024
:1012C000446976696465204279205A65726F00002E
:1012D0004F766572666C6F7700000000556E64652E
:1012E00072666C6F77000000496E657861637420E8
:1012F000526573756C7400005349474650453A2057
:1013000041726974686D657469632065786365709E
:1013100074696F6E3A20000008B569468DF80000C8
:101320000320ABBE08BD000010B501221021024809
:1013300001F0F8FA10BD00000000024010B50022D4
:101340001021024801F0EEFA10BD0000000002403A
:101350007047000010B501221146024801F0E2FA80
:1013600010BD00000004024010B500220121024817
:1013700001F0D8FA10BD000000040240704710B51B
:10138000044603E04FF47A7000F006F8201EA4F142
:1013900001018CB2F6D110BD70B5034600BF00BF8D
:1013A0000020002200BF4FF0E0267569A82603FB4D
:1013B00006F44FF0E026B16910E04FF0E026B06986
:1013C00088420BD0884202D20E1A324402E02E1A12
:1013D0000E4432440146A24200D300E0EDE700BFD4
:1013E00070BD10B50024FFF7B3FFFFF7C7FF0AF089
:1013F00055FF04430AF0E6FF0443204610BD0000F9
:101400002DE9FC4105460E4617460020009001904C
:10141000FFF794FF922000F0D1F8062269461220CF
:1014200000F0ACF8FFF780FF9DF80100000200B269
:101430009DF8001040EA010400EE104AB8EEC00A20
:101440004C48D0ED000A20EE200A86ED000A9DF8F7
:101450000300000200B29DF8021040EA010400EE11
:10146000104AB8EEC00A4348D0ED000A20EE200A28
:1014700086ED010A9DF80500000200B29DF80410F7
:1014800040EA010400EE104AB8EEC00A3948D0ED37
:10149000000A20EE200A86ED020AFFF765FF082207
:1014A0006946002000F06AF8FFF754FF9DF800003D
:1014B0000F2838D19DF80300000200B29DF80210F9
:1014C00040EA010400EE104AB8EEC00A2A48D0ED06
:1014D000000A20EE200A85ED000A9DF805000002B2
:1014E00000B29DF8041040EA010400EE104AB8EE84
:1014F000C00A2148D0ED000A20EE200A85ED010A3D
:101500009DF80700000200B29DF8061040EA0104B1
:1015100000EE104AB8EEC00A1748D0ED000A20EEDF
:10152000200A85ED020AFFF709FFA22000F046F825
:1015300002226946222000F021F8FFF7F5FE9DF80F
:101540000000C0009DF8011040EA6114B4F5806FFE
:1015500002DBA4F5006004B200EE104AF8EEC00A07
:10156000B4EE001AB3EE070A00EE810A87ED000A16
:10157000BDE8FC81D8010020DC01002070B50646E2
:101580000C46154646F0800000F018F806E055209D
:1015900000F014F82070641C681EC5B2002DF6D14E
:1015A00070BD70B504460D4644F0800000F006F8AA
:1015B000552000F003F8287070BD000001B582B01E
:1015C0004FF47A70012301AA02A90090024802F0A8
:1015D00011FE9DF804000EBDF405002070B505460F
:1015E0000C462846FFF7EAFF2046FFF7E7FF70BDED
:1015F00000BFFEE710B5024800F0D1FB10BD0000AF
:10160000CC05002010B5024800F0C9FB10BD000059
:10161000CC05002010B5024800F0C1FB10BD000051
:10162000CC050020F8B507460C4615461E4640F28C
:10163000FF100D49086000208860C860082008611C
:10164000380A0A4908704F70200A8870CC70280A3E
:1016500008714D71300A8871CE716B460A46024995
:10166000034800F09CF9F8BDF8490020040200206E
:10167000CC0500200346042B15D007DC7BB1012BE1
:101680000ED0022B0DD0032B12D10BE0202B0BD050
:10169000212B0AD0222B09D0232B09D107E008E007
:1016A00007E006E005E004E003E002E001E000E01E
:1016B00000BF00BF002070470020704710B5002217
:1016C0000449054807F063FC0449034807F050FC4F
:1016D000002010BDB4580020D84B0020B45000208A
:1016E00070B504460D462146034807F041FC024808
:1016F00007F00AFC002070BDD84B002010B503464F
:101700000C460021084610BD1EE01049496800EE55
:10171000101ABDEEC00A10EE101A08B200231A46C5
:101720001946FFF77FFF0A48D0ED011AB0EE611AA3
:10173000D0ED001AF0EE610A0648D0ED001AB0EEC6
:10174000610A05480CF0DCFBDFE700003C460020A6
:10175000E4450020F04500202407002010B5024891
:1017600000F03CFE10BD00006C07002010B50248E0
:1017700000F034FE10BD0000CC07002001460878C0
:1017800010381823B0FBF3F20848805CC865032AC0
:1017900005D908686FF30900001D886503E0086833
:1017A0006FF309008865886D70470000D404010854
:1017B000014600208A6A8B69CBB932B1012A0DD06B
:1017C000022A03D0032A10D10EE000BFCB6A03F037
:1017D0008073B3F1807F00D1012007E0CB6AB3F1C1
:1017E000C07F00D1012001E000E000BF34E08B6940
:1017F000B3F5005F1AD132B1012A07D0022A03D013
:10180000032A11D10AE000BF01200EE0CB6A03F0E9
:101810008073B3F1807F00D1012006E0CB6AB3F181
:10182000C07F00D1012000E000BF15E032B1012AE5
:1018300005D0022A04D0032A0CD103E000BF00BF68
:10184000012008E0CB6A03F08073B3F1807F00D100
:10185000012000E000BF00BF7047000008B50D4840
:101860000078B0B901200B4908700B48406800901F
:101870000A4900980968884204D209480068401C57
:101880000749086005490098086000200149087070
:1018900000BF08BD58030020001000E048030020EE
:1018A0004403002010B52DED028B82B004460E4893
:1018B0004068019020680199081A00EE100AF8EEBD
:1018C000400A0A4890ED000AB8EE400A80EE801AFD
:1018D000B0EE418A01982060FFF7C0FFB0EE480AE1
:1018E00002B0BDEC028B10BD001000E038030020F8
:1018F000704772B600BFFEE770B50A480468001D65
:101900000568001D0668344454B108220649204683
:1019100004F0FAFD042204491031284604F0F4FDD5
:1019200070BD0000107AFF1F6E020020032200210C
:1019300001200CF0B9FB0B490860C9200CF06CF9D0
:101940000FE009480AF006FF084A094906480AF06C
:1019500091FF064A064904480AF03AFE024805F09B
:101960006FFFEEE730020020904A00202C0200209A
:101970002802002010B5024692F82030012B01D039
:10198000022B06D11068406908431468606100208A
:1019900010BD506A40F4802050620120F8E7F0B595
:1019A00004460D461E4694F8207020688368A86897
:1019B00000B900E000BF012F01D0022F7DD103F05C
:1019C000806030B903F0006018B903F0805000283F
:1019D0007ED0C3F30161012088403060A86860B9FF
:1019E000B5F800C0E86840EA4C5C206800F5C070BB
:1019F00000EB0110C0F800C00FE0D5E901C040EADB
:101A0000CC00D5F80CC040EA0C00D4F800C00CF5AE
:101A1000C07C0CEB011CCCF80000D5F810C020688D
:101A200000F5C07000EB0110C0F804C0287D01284B
:101A30000ED1206800F5C07000EB0110406840F442
:101A4000807C206800F5C07000EB0110C0F804C075
:101A5000D079000692F806C040EA0C4092F805C022
:101A600040EA0C2092F804C040EA0C00D4F800C010
:101A70000CF5C07C0CEB011CCCF80C00D0780006F7
:101A800092F802C040EA0C4092F801C040EA0C20F3
:101A900092F800C040EA0C00D4F800C00CF5C07CFD
:101AA0000CEB011CCCF80800206800F5C07000EBBE
:101AB0000110006840F0010C01E00FE008E0206830
:101AC00000F5C07000EB0110C0F800C00020F0BDB0
:101AD000606A40F4001060620120F8E7606A40F438
:101AE000802060620120F2E7F0B504460A4694F8CF
:101AF0002050012D01D0022D7ED1424901F5007107
:101B0000086840F001000860086820F47C50086014
:101B10000868566A40EA06200860107D00F01F063B
:101B2000012000FA06F3C8699843C861A1F5007165
:101B3000D069C8B9D1F80C029843C1F80C0290885A
:101B400080B2968940EA064601F51070576940F860
:101B50003760108880B2168940EA064601F5107099
:101B6000576900EBC7004660D069012819D1D1F848
:101B70000C021843C1F80C02908880B2168840EA23
:101B8000064601F51070576940F83760908980B2B9
:101B9000168940EA064601F51070576900EBC70048
:101BA0004660906928B9D1F804029843C1F804024C
:101BB00004E0D1F804021843C1F80402106928B9FE
:101BC000D1F814029843C1F8140204E0D1F81402C9
:101BD0001843C1F81402106A012804D1D1F81C027C
:101BE0001843C1F81C02D1F8000220F00100C1F82E
:101BF00000020020F0BDFFE7606A40F480206062D0
:101C00000120F7E700640040704770B5044694F87F
:101C10002050012D01D0022D7DD151B92068C0681E
:101C200000F0030080B9606A40F400106062012097
:101C300070BD2068006900F0030028B9606A40F4B4
:101C4000001060620120F3E7206800F5D87000EB17
:101C50000110006800F004009060906840B92068AE
:101C600000F5D87000EB01100068400D106007E02F
:101C7000206800F5D87000EB01100068C0085060C3
:101C8000206800F5D87000EB0110006800F0020039
:101C9000D060206800F5D87000EB0110406800F0BB
:101CA0000F00082802D30820106108E0206800F522
:101CB000D87000EB0110406800F00F001061206840
:101CC00000F5D87000EB0110406800F47F40000A76
:101CD0009061206800F5D87000EB01104068000C9E
:101CE0005061206800F5D87000EB01108068187012
:101CF000206800F5D87000EB0110806800F47F4088
:101D0000000A5870206800F5D87000EB0110806858
:101D100000F47F0000E03CE0000C9870206800F5C3
:101D2000D87000EB01108068000ED870206800F5B4
:101D3000D87000EB0110C0681871206800F5D870E9
:101D400000EB0110C06800F47F40000A5871206861
:101D500000F5D87000EB0110C06800F47F00000CA3
:101D60009871206800F5D87000EB0110C068000E73
:101D7000D87131B92068C06840F020002668F06052
:101D800005E02068006940F02000266830610020EE
:101D90004EE7606A40F480206062012048E72DE948
:101DA000F05F04460025206846692068D0F804905A
:101DB000206887682068D0F80CA02068D0F810B0A0
:101DC0002068D0F8188006F00100002855D007F0F0
:101DD0000100C0B101202168886007F0020018B13D
:101DE000204600F08AFA0EE007F0040010B145F436
:101DF000006508E007F0080010B145F4805502E0E6
:101E0000204600F079FA07F48070C8B14FF4807072
:101E10002168886007F4007018B1204600F06FFA5E
:101E20000EE007F4806010B145F4005508E007F4B7
:101E3000006010B145F4804502E0204600F05EFAF3
:101E400007F48030C8B14FF480302168886007F40F
:101E5000003018B1204600F054FA0EE007F480205C
:101E600010B145F4004508E007F4002010B145F436
:101E7000803502E0204600F043FA06F0080038B151
:101E80000AF0100020B145F4007510202168C860E8
:101E900006F0040040B10AF0080028B108202168CB
:101EA000C860204600F0B8F906F0020038B120689A
:101EB000C06800F0030010B1204600F0AFF906F052
:101EC000400038B10BF0100020B145F480651020BF
:101ED0002168086106F0200040B10BF0080028B12D
:101EE000082021680861204600F0D4F906F01000AF
:101EF00038B12068006900F0030010B1204600F0FE
:101F0000CAF906F4003040B109F0100028B11020E1
:101F100021684860204600F0BFF906F4803040B1E7
:101F200009F0080028B1082021684860204600F028
:101F3000E9F906F4004088B309F0040078B306F428
:101F4000807020B108F0010008B145F0010506F4E9
:101F5000007020B108F0020008B145F0020506F457
:101F6000806020B108F0040008B145F0040506F4D3
:101F70000060A0B108F0700088B108F0700040283F
:101F800017D006DC10280BD020280CD0302819D10F
:101F90000CE0502810D0602814D110E01DE019E0AA
:101FA00045F008050FE045F010050CE045F0200570
:101FB00009E045F0400506E045F0800503E045F402
:101FC000807500E000BF00BF2068806920F07000CD
:101FD000216888610420216848602DB1606A284327
:101FE00060622046FFF710FEBDE8F09F70B5044622
:101FF0000CB9012070BD94F8200010B9204600F003
:10200000AFF82068006840F001002168086000F027
:102010008FFC05460DE000F08BFC401B0A2808D918
:10202000606A40F400306062052084F820000120DE
:10203000E0E72068406800F001000028EBD020684D
:10204000006820F002002168086000F071FC05467D
:102050000DE000F06DFC401B0A2808D9606A40F4CE
:1020600000306062052084F820000120C2E720686B
:10207000406800F002000028EBD1207E012806D144
:102080002068006840F080002168086005E0206852
:10209000006820F0800021680860607E012806D179
:1020A0002068006840F040002168086005E0206872
:1020B000006820F0400021680860A07E012806D159
:1020C0002068006840F020002168086005E0206872
:1020D000006820F0200021680860E07E012806D119
:1020E0002068006820F010002168086005E0206882
:1020F000006840F0100021680860207F012806D1A8
:102100002068006840F008002168086005E0206849
:10211000006820F0080021680860607F012806D16F
:102120002068006840F004002168086005E020682D
:10213000006820F0040021680860D4E90201084327
:1021400021690843616908436168491E08432168A1
:10215000C86100206062012084F82000002049E767
:1021600010B586B00446142101A8FEF733FF2749B5
:102170002068884247D100BF0020009024480068B2
:1021800040F00070224908600846006800F00070C6
:10219000009000BF00BF00BF002000901C48103816
:1021A000006840F008001A491039086008460068C5
:1021B00000F00800009000BF00BF03200190022043
:1021C000029000200390032004900920059001A9AB
:1021D000104800F0ADFA00220521132000F070FC39
:1021E000132000F059FC00220621142000F068FCA6
:1021F000142000F051FC00220521152000F060FCA5
:10220000152000F049FC06B010BD0000006400403D
:1022100040380240000C02407047000010B50446F0
:102220001749206888422AD1164B174A00211748BF
:10223000FFF7EBFC14480068A0F2012088B10328E6
:1022400015D0042802D0052817D104E00D49104804
:102250000AF05CF912E00B490D480A300AF056F911
:102260000CE008490A480A300AF050F906E005492E
:1022700007480A300AF04AF900E000BF00BF10BD6D
:102280000064004014020020DC490020CC0500203E
:102290005446002070477047704770B5044694F864
:1022A0002000012822D1022084F820002068006844
:1022B00020F001002168086000F03AFB05460DE0BF
:1022C00000F036FB401B0A2808D9606A40F4003051
:1022D0006062052084F82000012070BD20684068FD
:1022E00000F001000028EBD16062F6E7606A40F47C
:1022F000002060620120F0E7704770477047704728
:1023000070477047704770B50446A56D00F010FB2C
:10231000064694F83500022808D08020606500BF8A
:10232000002084F8340000BF012070BD20680068E0
:1023300020F01600216808602068406920F08000C5
:1023400021684861206C08B9A06C28B12068006839
:1023500020F00800216808602068006820F0010073
:102360002168086010E000F0E3FA801B05280BD913
:1023700020206065032084F8350000BF002084F829
:10238000340000BF0320D0E72068006800F001009F
:102390000028E8D194F85C103F208840A860012014
:1023A00084F8350000BF002084F8340000BF00BF6F
:1023B000BBE7014691F83500022803D0802048652C
:1023C00001207047052081F835000868006820F07A
:1023D00001000A6810600020F3E70000F8B5044629
:1023E000002000908C4800684FF41651B0FBF1F7C4
:1023F000A56D2E6894F85C1008208840304098B194
:102400002068006800F0040070B12068006820F0C7
:1024100004002168086094F85C1008208840A860D7
:10242000606D40F00100606594F85C100120884008
:10243000304068B12068406900F0800040B194F8F5
:102440005C1001208840A860606D40F0020060656B
:1024500094F85C1004208840304068B1206800681F
:1024600000F0020040B194F85C1004208840A8609D
:10247000606D40F00400606594F85C1010208840A6
:10248000304078B32068006800F0080050B394F83A
:102490005C1010208840A8602068006800F480204C
:1024A00080B12068006800F4002028B9206CC8B111
:1024B0002046216C884715E0A06C98B12046A16C9D
:1024C00088470FE02068006800F4807028B9206811
:1024D000006820F0080021680860206C10B12046D8
:1024E000216C884794F85C102020884030400028F8
:1024F00065D02068006800F0100000285FD094F8D4
:102500005C1020208840A86094F83500052828D168
:102510002068006820F01600216808602068406983
:1025200020F0800021684861206C08B9A06C28B1B7
:102530002068006820F008002168086094F85C10AA
:102540003F208840A860012084F8350000BF0020AB
:1025500084F8340000BF206D10B12046216D8847FB
:10256000F8BD2068006800F4802080B12068006811
:1025700000F4002028B9606C10B12046616C8847D7
:102580001DE0E06BD8B12046E16B884717E020687A
:10259000006800F4807068B92068006820F01000BE
:1025A00021680860012084F8350000BF002084F80D
:1025B000340000BFE06B10B12046E16B8847606DCE
:1025C00038B3606D00F00100F0B1052084F83500EB
:1025D0002068006820F001002168086000BF0098B2
:1025E000401C0090B84200D905E02068006800F067
:1025F00001000028F3D100BF012084F8350000BF9E
:10260000002084F8340000BFE06C10B12046E16C7B
:10261000884700BFA4E70000240000202DE9F04116
:102620000446002500F084F9074614B90120BDE8EE
:10263000F081606A00B100BF022084F8350000BF5D
:10264000002084F8340000BF2068006820F00100FA
:10265000216808600AE000F06BF9C01B052805D965
:1026600020206065032084F83500E0E720680068DA
:1026700000F001000028EED12068056821480540DF
:10268000D4E901010843E16808432169084361690D
:102690000843A1690843E1690843216A08430543E7
:1026A000606A042803D1D4E90B010843054320687C
:1026B00005602068456925F00705606A0543606A82
:1026C00004280DD1A06A0543E06A48B12046FFF70F
:1026D0006FF828B140206065012084F83500A6E736
:1026E000206845612046FFF749F8064694F85C10DB
:1026F0003F208840B06000206065012084F83500EC
:10270000002094E73F8010F070B5044600F010F907
:1027100006462546681C10B104480078054400BFF1
:1027200000F006F9801BA842FAD370BD20000020FB
:10273000F8B502460B460025002400200021D6E013
:10274000012606FA01F51E6806EA0504AC4274D1BA
:102750001E7906F00306012E04D01E7906F003064A
:10276000022E13D190684F000326BE40B0434F00A5
:10277000DE68BE4030439060506801268E40B04312
:102780001E79C6F300168E40304350601E7906F065
:102790000306032E09D0D0684F000326BE40B04385
:1027A0004F009E68BE403043D0601E7906F003069D
:1027B000022E13D1CF0802F1200656F827004E074B
:1027C000F70E0F26BE40B0434F07FF0E1E69BE40F6
:1027D0003043CF0802F1200646F8270010684F006A
:1027E0000326BE40B0431E7906F003064F00BE40EC
:1027F000304310605E6806F44036002E76D000BF8D
:10280000002600963C4E366846F480463A4F3E60BD
:102810003E46366806F48046009600BF00BF374E3D
:102820008F0856F827008E07370F0F26BE40B0439B
:10283000334EB24202D1002624E057E0314EB2427C
:1028400001D101261EE0304EB24201D1022619E02C
:102850002E4EB24201D1032614E02D4EB24201D1D8
:1028600004260FE02B4EB24201D105260AE02A4E83
:10287000B24201D1062605E0284EB24201D1072618
:1028800000E008268F073F0FBE4030431B4E8F08E5
:1028900046F82700224E3068A0435E6806F4801692
:1028A00006B120431E4E3060361D3068A0435E687E
:1028B00006F4001606B12043194E361D3060184E3E
:1028C000361F3068A0435E6806F4003606B1204328
:1028D000134E361F3060361F3068A0435E6806F422
:1028E000803606B120430E4E083E3060491C102948
:1028F000FFF426AFF8BD000044380240083801401C
:10290000000002400004024000080240000C0240A7
:10291000001002400014024000180240001C024057
:10292000083C01400AB1816101E00B0483617047FA
:102930000148006870470000180000200348006844
:1029400003490978084401490860704718000020CD
:102950002000002010B50D48006840F400700B49BD
:1029600008600846006840F4806008600846006817
:1029700040F480700860032000F0E0F80F2000F0C1
:1029800007F800F05FF8002010BD0000003C024096
:102990002DE9F04188B004460027B84600BF00206A
:1029A00001902348006840F008002149086008466B
:1029B000006800F00800019000BF00BF02A903A852
:1029C00001F064F8069F1FB901F088F8054602E09F
:1029D00001F084F845001748B5FBF0F0A0F10108BC
:1029E00015481649086040F2E7311448C160C0F844
:1029F0000480002101618160816101F07BFD064658
:102A000096B90E4801F0E4FD06466EB9322000F09A
:102A100043F8102C07D200222146322000F050F853
:102A20000748046000E00126304608B0BDE8F081A8
:102A30004038024040420F00000C00402C080020AB
:102A40001C00002008B500BF00200090114800685D
:102A500040F480400F4908600846006800F4804058
:102A6000009000BF00BF00BF00200090081F00685A
:102A700040F08050091F08600846006800F0805050
:102A8000009000BF00BF00220F21901E00F018F838
:102A900008BD0000443802400146084600280DDB0E
:102AA00000BF00BF00F01F0301229A4043099B00B2
:102AB00003F1E023C3F8002100BF00BF00BF70474F
:102AC0002DE9F05F80460D461646002708F090FC81
:102AD000074639462A46334601F00700C0F1070A87
:102AE000BAF1040F02D94FF0040A01E0C0F1070A5D
:102AF000D14600F1040ABAF1070F02D24FF0000AE2
:102B000001E0A0F1030AD4464FF0010A0AFA09FADB
:102B1000AAF1010A0AEA020A0AFA0CFA4FF0010BBA
:102B20000BFA0CFBABF1010B0BEA030B4AEA0B04AB
:102B30002146404608F064FCBDE8F09F00BF00F06D
:102B40000702064B19684FF6FF031940044B0B436D
:102B500043EA0221014B196000BF70470CED00E011
:102B60000000FA0570470246106841620020704775
:102B7000F0B5034615461868446A21B944EA054091
:102B80001E68B06219E01868806A04EB10440022E5
:102B900008E0186800F5827050F8220004EB104439
:102BA000501CC2B2481E9042F3D844EA0547186848
:102BB00000F582704E1E40F826700020F0BD10B562
:102BC0000446D4F8E00406F0E4FE10BD70B50446F7
:102BD0000D4605EBC50304F1140101EB8301CA683E
:102BE0002946D4F8E00406F0C7FD70BD70B5044670
:102BF0000D4605EBC50304F5157101EB8301CA68A9
:102C00002946D4F8E00406F03FFE70BD10B5044636
:102C1000D4F8E00406F0C0FE10BD2DE9F0410446F2
:102C20000D4605F08000802808D105F00F0000EB6C
:102C3000C00104F1140000EB810607E005F00F006D
:102C400000EBC00104F5157000EB810631462068E9
:102C500008F0F8F807463846BDE8F08170B504463C
:102C60000E4606F0800080280AD106F00F0000EB27
:102C7000C00104F1140000EB81050120687009E037
:102C800006F00F0000EBC00104F5157000EB8105A4
:102C90000020687006F00F00287000BF94F89404BC
:102CA000012801D1022070BD012084F8940400BFE6
:102CB0002946206807F054FC00BF002084F89404E3
:102CC00000BF00BFEFE770B504460E4606F00F00E8
:102CD0002179884201D9012070BD06F0800080284A
:102CE0000AD106F00F0000EBC00104F1140000EB64
:102CF00081050120687009E006F00F0000EBC001BB
:102D000004F5157000EB8105002068700020A870A4
:102D100006F00F00287000BF94F89404012801D138
:102D20000220D9E7012084F8940400BF29462068D6
:102D300007F014FE00BF002084F8940400BF00BF19
:102D4000CAE7024601F00F0000EBC00302F5157060
:102D500000EB8300406970472DE9F04705460E46B9
:102D600090461F464FF0000906F0800080280AD1E7
:102D700006F00F0000EBC00105F1140000EB810428
:102D80000120607009E006F00F0000EBC00105F5BE
:102D9000157000EB81040020607006F00F002070B9
:102DA000C8F30A00A0602771607808B120786083BA
:102DB000022F01D10020607100BF95F89404012812
:102DC00002D10220BDE8F087012085F8940400BFFD
:102DD0002146286807F0D0FA00BF002085F8940447
:102DE00000BF4846EEE72DE9F04105460E4617467E
:102DF000984606F00F0000EBC00105F5157000EBDA
:102E00008104E760C4F8108000206061607006F003
:102E10000F002070A879012800D1E761AA79214626
:102E2000286807F02FFE0020BDE8F08170B5044649
:102E30000D4605F00F002179884201D9012070BDAF
:102E400005F0800080280AD105F00F0000EBC001DA
:102E500004F1140000EB81060120707007E005EB1F
:102E6000C50104F5157000EB81060020707001208B
:102E7000B07005F00F00307000BF94F89404012882
:102E800001D10220DBE7012084F8940400BF314621
:102E9000206807F0AAFD05F00F0028B9A17904F217
:102EA0009C42206807F022FD00BF002084F89404B3
:102EB00000BF00BFC3E72DE9F04105460E461746A7
:102EC000984606F00F0000EBC00105F1140000EB7E
:102ED0008104E760C4F81080002060610120607008
:102EE00006F00F002070A879012800D1E761AA79C7
:102EF0002146286807F0C6FD0020BDE8F0812DE9D5
:102F0000FE4F0446D4F800B05E46206808F07CF816
:102F1000002874D1206808F0B6F808B9BDE8FE8F23
:102F200040F608008059C0F30D20C4F8D40420688E
:102F300008F0A9F800F00200022805D120684069D5
:102F400000F0020021684861206808F09CF800F059
:102F50001000102845D12068806920F010002168F9
:102F60008861DBF8209009F00F0000EBC00104F548
:102F7000157000EB810AC9F3434002281AD147F6C5
:102F8000F07009EA000030B3C9F30A125846DAF8C3
:102F90000C1008F07DF8C9F30A11DAF80C000844A7
:102FA000CAF80C00C9F30A11DAF814000844CAF888
:102FB000140010E0C9F3434006280CD1082204F2A3
:102FC0009C41584608F064F8C9F30A11DAF8140075
:102FD0000844CAF814002068806940F01000216895
:102FE0008861206808F04FF800F40020B0F5002F49
:102FF0007BD10025206808F016F8029072E0E1E22B
:10300000029800F00100002868D0E9B2206808F0BA
:103010002DF8804608F0010048B1012106F5306026
:1030200000EB451081602946204604F00BFE08F0B5
:103030000800082809D1082106F5306000EB45108A
:1030400081602946204604F0CBFD08F010001028CE
:1030500005D1102106F5306000EB4510816008F0C5
:103060000200022824D1DBF8140000F08000802840
:1030700007D140F60400805940F4806140F6040016
:10308000815105EBC50104F5157000EB810A9AF832
:103090000300012806D100208AF80300E9B2204687
:1030A00000F09BFA022106F5306000EB45108160CC
:1030B00008F02000202805D1202106F5306000EB23
:1030C0004510816008F40050B0F5005F06D14FF460
:1030D000005106F5306000EB451081606D1C0298D0
:1030E00040080290029800288AD1206807F0CBFFA0
:1030F00000F48020B0F5802F7DD1206807F089FF93
:10310000029000259AE0029800F00100002873D098
:10311000E9B2206807F091FF804608F00100F0B3A3
:1031200005F00F0101208840019040F634008159DC
:10313000019821EA000040F634018851012106F58A
:10314000106000EB45108160A079012824D105EBC7
:10315000C50104F1140000EB810005EBC502C16854
:1031600004F1140000EB82008068014405EBC50205
:1031700004F1140000EB8200C1606DB905EBC501DC
:1031800004F1140000EB8100006928B904F29C42AC
:103190000121206807F0AAFBE9B2204600E001E027
:1031A000FFF714FD08F00800082805D1082106F5EE
:1031B000106000EB4510816008F01000102805D168
:1031C000102106F5106000EB4510816008F040000A
:1031D000402805D1402106F5106000EB45108160C4
:1031E00008F0020002281DD12946584607F0CFFEFC
:1031F00005EBC50101E025E01CE004F1140000EB43
:10320000810A9AF80300012806D100208AF80300F9
:10321000E9B2204600F0D8F9022106F5106000EB73
:103220004510816008F08000802803D1294620469F
:1032300004F0AAFD6D1C0298400802900298002834
:103240007FF461AF206807F01EFF00F00040B0F18E
:10325000004F1CD140F60400805920F0010140F6D7
:103260000400815194F8CC04012807D1002084F88F
:10327000CC0400212046FFF775FC02E0204600F058
:10328000D1FA2068406900F0004021684861206858
:1032900007F0F9FE00F40060B0F5006F0ED140F6C3
:1032A0000800805900F0010010B1204600F012FB28
:1032B0002068406900F4006021684861206807F0D8
:1032C000E2FE00F48050B0F5805F7ED140F604004D
:1032D000805920F0010140F604008151102120683E
:1032E00007F055FE002732E04FF67F3106F51060FB
:1032F00000EB4710816006F5106000EB4710006896
:1033000020F4001106F5106000EB471001604FF645
:103310007F3106F5306000EB4710816006F53060C4
:1033200000EB4710006820F4001106F5306000EB58
:103330004710016006F5306000EB4710006840F070
:10334000006106F5306000EB471001607F1C2079BA
:10335000B842C9D840F61C00805940F0011140F62F
:103360001C008151E07B70B1D6F8840840F00B015D
:10337000C6F8841840F64400805940F00B0140F62E
:10338000440081510FE040F61400805942F22B01B5
:10339000084340F614018851081F805940F00B0182
:1033A0004FF401608151D6F8000820F4FE60C6F8A1
:1033B0000008A17904F29C42206807F097FA20687F
:1033C000406900F48050216800E000E04861206816
:1033D00007F059FE00F40050B0F5005F17D12068E7
:1033E00007F032F8206807F0FCFDE07100F070FB98
:1033F0000090E2792068009907F0CCFE204600F0AA
:10340000F9F92068406900F400502168486120689B
:1034100007F039FE00F00800082808D1204600F027
:1034200008FA2068406900F00800216848612068B7
:1034300007F029FE00F08000802818D1DBF8180082
:1034400020F08000CBF8180001250DE005EBC50148
:1034500004F5157000EB8100C078012803D1E9B2B2
:103460002046FFF7DAFB6D1C2079A842EED82068D1
:1034700007F009FE00F48010B0F5801F2DD1012562
:1034800022E006F5106000EB4510D0F8009005EB47
:10349000C50104F1140000EB81000079012812D16C
:1034A00009F00040B0F1004F0DD1012105EBC5023C
:1034B00004F1140000EB8200C170E8B240F080011A
:1034C0002046FFF7AAFB6D1C2079A842D9D82068B6
:1034D000406900F4801021684861206807F0D3FD3E
:1034E00000F40010B0F5001F44D1012538E006F5C6
:1034F000306000EB4510D0F8009005EBC50104F5F5
:10350000157000EB81000079012828D109F00040F6
:10351000B0F1004F23D194F8D40400F00100C9F3B6
:10352000004188421BD1012105EBC50204F515704D
:1035300000EB8200C170DBF8180040F08000CBF88F
:103540001800DBF8140000F0800040B940F60400D9
:10355000805940F4007140F60400815103E06D1C75
:103560002079A842C3D800BF2068406900F4001049
:1035700021684861206807F086FD00F08040B0F1C6
:10358000804F08D12046FFF71AFB2068406900F001
:10359000804021684861206807F075FD00F0040054
:1035A00004280FD12068D0F8049009F00400042802
:1035B00002D12046FFF72AFB2068406840EA090054
:1035C0002168486000BFA9E470B504460D4629464D
:1035D000D4F8E00406F04CFA70BD70B504460D4610
:1035E0002946D4F8E00406F067FA70BDF8B5044641
:1035F0000CB90120F8BD266894F8950428B900207C
:1036000084F89404204600F0A1F8032084F895047F
:10361000B6F1A04F01D10021A171206807F05EF939
:10362000207C8DF8000094E80F0006F021FF20B107
:10363000022084F895040120DCE70021206807F0CF
:1036400057FD20B1022084F895040120D2E700251F
:1036500031E0012105EBC50204F1140000EB82000A
:10366000417005EBC50104F1140000F8215005EB91
:10367000C50100EB81004583002105EBC50204F183
:10368000140000EB8200017105EBC50204F1140087
:1036900000EB8200816005EBC50204F1140000EB31
:1036A0008200C16005EBC50204F1140000EB82004A
:1036B0000161681CC5B22079A842CADC00252AE055
:1036C000002105EBC50204F5157000EB8200417086
:1036D00005EBC50104F5157000F82150002105EB3C
:1036E000C50200EB8200017105EBC50204F51570FF
:1036F00000EB8200816005EBC50204F5157000EB5C
:103700008200C16005EBC50204F5157000EB820074
:103710000161681CC5B22079A842D1DC207C8DF8FB
:10372000000094E80F0006F0E5FF20B1022084F8C5
:10373000950401205EE700206074012084F8950460
:10374000206806F0C5FF002054E7000010B586B0E1
:103750000446142101A8FDF73DFC2068B0F1A04FFC
:1037600042D100BF002000902048006840F00100D6
:103770001E4908600846006800F00100009000BF84
:1037800000BF4FF4C050019002200290002003902F
:10379000032004900A20059001A91548FEF7C8FFF0
:1037A00000BF1248001D006840F080000F49091D4D
:1037B000086000BF002000900C481430006840F4FE
:1037C00080400A49143108600846006800F48040CF
:1037D000009000BF00BF00BF002205214320FFF77B
:1037E0006FF94320FFF758F906B010BD303802409A
:1037F0000000024070B504460125E07908B90025B3
:1038000006E0E079022801D1012501E0FEF771F818
:103810002946D4F8E00406F0F9F9D4F8E00406F0FB
:103820009FF970BD10B50446D4F8E00406F0CFF956
:1038300010BD10B50446D4F8E00406F0D3F910BD6D
:1038400070B504460D4600BF94F89404012801D1D8
:10385000022070BD012084F8940400BF65742946DD
:10386000206807F079FC00BF002084F8940400BFB2
:1038700000BFEEE710B5044604F29C41D4F8E00422
:1038800006F0DBF910BD70B50446256800BF94F85A
:103890009404012801D1022070BD012084F8940411
:1038A00000BFE86800F0400030B1607B012803D120
:1038B000A86B40F48030A863206807F039FB2068CB
:1038C00006F0F4FE00BF002084F8940400BF00BF9F
:1038D000E2E7000010B50446D4F8E00406F00AFA66
:1038E0002068D0F8000E40F001002168C1F8000EF9
:1038F000E07A28B10348006840F0060001490860FA
:1039000010BD000010ED00E070B504460D460CB986
:10391000012070BD5848006800F00700A84209D295
:1039200055490D700846006800F00700A84201D014
:103930000120EEE7207800F0020002281DD1207857
:1039400000F00400042805D14C48006840F4E05021
:103950004A490860207800F00800082805D1474847
:10396000006840F46040454908604448006820F021
:10397000F000A168084341490860207800F0010088
:10398000A8B36068012807D13C4808380068C0F334
:103990004040B8B90120BCE76068022802D06068E6
:1039A000032807D1354808380068C0F3406048B99B
:1039B0000120AEE7314808380068C0F3400008B97C
:1039C0000120A6E72D48006820F003006168084345
:1039D0002A490860FEF7ACFF064609E0FEF7A8FF9B
:1039E000801B41F28831884202D9032091E707E029
:1039F0002248006800F00C006168B0EB810FEDD147
:103A00001D48006800F00700A84209D91A490D7046
:103A10000846006800F00700A84201D0012078E7BE
:103A2000207800F00400042807D11448006820F42E
:103A3000E050E168084311490860207800F0080070
:103A4000082808D10D48006820F46040216940EA48
:103A5000C1000A49086000F061F808490968C1F32B
:103A60000311074A515CC8400649086006480068CF
:103A7000FEF78EFF00204CE7003C02400838024071
:103A8000DC040108240000201C0000200F2202603A
:103A90000D4A126802F0030242600B4A126802F0FB
:103AA000F0028260084A126802F4E052C260064ADC
:103AB000126802F46042D2080261044A126802F0FD
:103AC00007020A607047000008380240003C0240CC
:103AD00001480068704700002400002000B5FFF78F
:103AE000F7FF04490968C1F38221034A515CC840C9
:103AF00000BD000008380240EC04010800B5FFF7E3
:103B0000E7FF04490968C1F34231034A515CC840E8
:103B100000BD000008380240EC0401082DE9F04720
:103B2000002400250026A1462548006800F00C006E
:103B300020B1042805D008283AD105E0DFF88490A8
:103B400039E0DFF8849036E01D48001F006800F07F
:103B50003F041B48001F006800F4800078B11A4839
:103B60001749091F0968C1F38811A0FB01700146BC
:103B7000224600233846FDF71DF905460EE01148A0
:103B80000F49091F0968C1F38811A0FB01700146A4
:103B9000224600233846FDF70DF905460848001F68
:103BA0000068C0F30140401C4600B5FBF6F902E096
:103BB000DFF8109000BF00BF4846BDE8F087000066
:103BC000083802400024F400001BB700F8B5044692
:103BD0000CB90120F8BD207800F00100002874D055
:103BE000F948006800F00C0004280DD0F648006881
:103BF00000F00C00082813D1F348001F006800F4FF
:103C00008000B0F5800F0BD1EF4808380068C0F392
:103C10004040002859D06068002856D10120D9E7DB
:103C200000BF6068B0F5803F08D1E74808380068F9
:103C300040F48030E449083908601EE06068B0F55F
:103C4000A02F0DD1E0480838006840F48020DE49FC
:103C5000083908600846006840F4803008600CE0CD
:103C6000D9480838006820F48030D74908390860FE
:103C70000846006820F48020086000BF606890B1AA
:103C8000FEF756FE054606E0FEF752FE401B64288E
:103C900001D903209EE7CC4808380068C0F34040B3
:103CA0000028F1D011E0FEF743FE054606E0FEF7DE
:103CB0003FFE401B642801D903208BE7C248083827
:103CC0000068C0F340400028F1D1207800F00200E5
:103CD00002285FD1BC48006800F00C0058B1BA4817
:103CE000006800F00C0008281CD1B748001F0068CD
:103CF00000F48000B0B9B44808380068C0F3400050
:103D000020B1E068012801D0012063E7AE480838FF
:103D1000006820F0F800216940EAC100AA4908398A
:103D2000086037E0E06800B30120A8490860FEF7AA
:103D3000FFFD054606E0FEF7FBFD401B022801D90A
:103D4000032047E7A04808380068C0F34000002877
:103D5000F1D09D480838006820F0F800216940EA59
:103D6000C10099490839086014E0002097490860AB
:103D7000FEF7DEFD054606E0FEF7DAFD401B0228F1
:103D800001D9032026E7904808380068C0F34000B6
:103D90000028F1D1207800F0080008282CD16069B3
:103DA000A8B101208A490860FEF7C2FD054606E079
:103DB000FEF7BEFD401B022801D903200AE7824816
:103DC0006C300068C0F340000028F1D014E00020FF
:103DD0007F490860FEF7ACFD054606E0FEF7A8FD4A
:103DE000401B022801D90320F4E677486C300068B4
:103DF000C0F340000028F1D1207800F0040004282E
:103E000070D1002770483830006800F0805090B9B9
:103E100000BF002000906C483830006840F08050AF
:103E20006949383108600846006800F08050009009
:103E300000BF00BF01276748006800F48070B0B978
:103E40006448006840F4807062490860FEF770FDC5
:103E5000054606E0FEF76CFD401B022801D9032051
:103E6000B8E65C48006800F480700028F2D000BF1B
:103E7000A068012808D154486830006840F001006B
:103E80005149683108601DE0A06805280DD14E48F1
:103E90006830006840F004004B496831086008460B
:103EA000006840F0010008600CE047486830006896
:103EB00020F001004449683108600846006820F09D
:103EC0000400086000BFA068A8B1FEF731FD0546F8
:103ED00009E0FEF72DFD401B41F28831884202D9EE
:103EE000032077E626E0384868300068C0F34000D9
:103EF0000028EED013E0FEF71BFD054608E0FEF7B4
:103F000017FD401B41F28831884201D9032061E648
:103F10002D4868300068C0F340000028EFD1012F21
:103F200007D129483830006820F0805026493831C0
:103F3000086000BFA069002845D02348006800F051
:103F40000C0008285DD0A069022845D100201F4937
:103F50000866FEF7EDFC054606E0FEF7E9FC401BAF
:103F6000022801D9032035E6174808380068C0F355
:103F700040600028F1D1D4E907010843616A40EAB2
:103F800081110122A06AC2EB500041EA00412C20BD
:103F9000005D41EA00600C49091F086001200B49DF
:103FA0000866FEF7C5FC054606E0FEF7C1FC401BAF
:103FB000022801D903200DE6034808380068C0F341
:103FC00040600028F1D049E0083802400000474234
:103FD000800E474200700040002021490866FEF72D
:103FE000A7FC054606E0FEF7A3FC401B022801D90A
:103FF0000320EFE51B480068C0F340600028F2D1C1
:104000002CE0A069012800D1E4E51648001D0668EF
:10401000A069012820D006F48001E06981421BD10B
:1040200006F03F01206A814216D147F6C070304049
:10403000616AB0EB811F0FD106F440310122A06A02
:10404000C2EB5000B1EB004F06D106F070612C209E
:10405000005DB1EB006F01D00120BBE50020B9E5A8
:10406000000047420038024010B504460CB9012058
:1040700010BD606A38B96068B0F5827F00D105E094
:104080000021E16102E00021216161610021A16262
:1040900094F8510028B9002084F85000204600F020
:1040A00047F8022084F851002068006820F04000A2
:1040B00021680860A08800F48270218901F404411D
:1040C0000843A18901F400610843217C01F0020149
:1040D0000843217D01F001010843218B01F40071A7
:1040E0000843217F01F0380108432021095D01F0D8
:1040F00080010843218D01F40051084321680860C4
:104100000421A06901EA104094F8241001F0100184
:104110000843216848602068C06920F40060216875
:10412000C86100206065012084F8510000209FE7ED
:1041300010B586B00446142101A8FCF74BFF2949AD
:10414000206888424CD100BF0020009026480068BB
:1041500040F48050244908600846006800F480500C
:10416000009000BF00BF00BF002000901E48143820
:10417000006840F002001C491439086008460068D5
:1041800000F00200009000BF00BF00BF00200090C0
:104190000846006840F0010008600846006800F02A
:1041A0000100009000BF00BF182001900220029083
:1041B00000200390032004900520059001A90B48DE
:1041C000FEF7B6FA802001900220029000200390B2
:1041D000032004900520059001A90548FEF7A8FAE0
:1041E00006B010BD003001404438024000040240D7
:1041F000000002402DE9FE4F04460F4690461D4642
:104200000C9E01200190FEF793FB814694F851B07B
:1042100060680290AA46BBF1010F0BD00298B0F57E
:10422000827F04D1A06810B9BBF1040F02D0022034
:10423000BDE8FE8F1FB1B8F1000F00D00DB901200D
:10424000F6E700BF94F85000012801D10220EFE703
:10425000012084F8500000BF94F85100042802D0D7
:10426000052084F8510000206065C4F83880E58797
:10427000A5872763E586A5862064606420680068BA
:1042800000F04000402805D02068006840F0400061
:1042900021680860E068B0F5006F52D1606810B125
:1042A000BAF1010F09D1206B00882168C860206B2A
:1042B000801C2063E08E401EE0863BE02068806822
:1042C00000F00200022810D1E08E70B101980128A0
:1042D0000BD1206B00882168C860206B801C206394
:1042E000E08E401EE086002001902068806800F08B
:1042F000010068B1E08F58B12068C068A16B0880E8
:10430000A06B801CA063E08F401EE087012001901D
:10431000FEF70EFBA0EB0900B0420BD3701C48B1B6
:10432000012084F8510000BF002084F8500000BF35
:1043300003207DE7E08E0028C0D1E08F0028BDD1AA
:1043400052E0606810B1BAF1010F09D1206B00781A
:1043500021680873206B401C2063E08E401EE086BD
:104360003CE02068806800F00200022810D1E08E56
:1043700070B1019801280BD1206B00782168087377
:10438000206B401C2063E08E401EE08600200190E0
:104390002068806800F0010068B1E08F58B12068A3
:1043A000C068A16B0870A06B401CA063E08F401E2A
:1043B000E08701200190FEF7BBFAA0EB0900B042B4
:1043C00001D3701C00B94EB9012084F8510000BF20
:1043D000002084F8500000BF032029E7E08E002869
:1043E000BFD1E08F0028BCD14A463146204603F0B9
:1043F00075FD40B12020606500BF002084F85000AA
:1044000000BF012014E7A06850B900BF0020009051
:104410002068C068009020688068009000BF00BFDE
:10442000012084F8510000BF002084F8500000BF34
:10443000606D08B10120FBE60020F9E67047704787
:1044400030B502460B4600BF92F83C00012801D16E
:10445000022030BD012082F83C0000BF022082F81B
:104460003D00106844681068816824F07004186882
:10447000044310684460184D1068A8421BD01068AF
:10448000B0F1804F17D0154D1068A84213D0144DCD
:104490001068A8420FD0134D1068A8420BD0124DDF
:1044A0001068A84207D0114D1068A84203D0104DE3
:1044B0001068A84205D121F08001586801431068B6
:1044C0008160012082F83D0000BF002082F83C009E
:1044D00000BF00BFBDE70000000001400004004035
:1044E00000080040000C0040000401400040014072
:1044F0000018004010B504460CB9012010BD94F816
:104500003D0028B9002084F83C00204600F026F841
:10451000022084F83D00211D206803F02DFE0120BB
:1045200084F8460000BF84F83E0001213F20015579
:10453000402001554120015500BF00BF012084F8F3
:10454000420043200155442001554520015500BF3C
:10455000012084F83D000020D0E7000038B5044673
:104560002068B0F1804F18D100BF0020009016489D
:10457000006840F00100144908600846006800F037
:104580000100009000BF00BF002205211C20FEF7A3
:1045900097FA1C20FEF780FA15E00C492068884243
:1045A00011D100BF002000900748001D006840F4B2
:1045B00000300549091D08600846006800F4003015
:1045C000009000BF00BF38BD4038024000440140A9
:1045D000014691F83D00012801D0012070470220DA
:1045E00081F83D000868C06840F001000B68D860A1
:1045F0001A4B086898421BD00868B0F1804F17D05A
:10460000174B0868984213D0164B086898420FD091
:10461000154B086898420BD0144B0868984207D095
:10462000134B0868984203D0124B086898420CD18B
:104630000868806800F00702062A0CD00868006845
:1046400040F001000B68186005E00868006840F061
:1046500001000B6818600020C0E700000000014066
:104660000004004000080040000C0040000401402D
:1046700000400140001800402DE9F04104460D467D
:10468000002700BF94F83C00012802D10220BDE8B9
:10469000F081012084F83C0000BF022084F83D0036
:1046A0002068866826F0770626F47F4620688660B4
:1046B0002868502833D00CDC202850D004DC002897
:1046C0004BD0102851D149E0302849D040284CD156
:1046D00039E060282DD0702807D0B0F5805F03D076
:1046E000B0F5005F41D10DE041E0D5E902136A6801
:1046F000206803F0B1FD2068866846F077062068E0
:10470000866034E0D5E902136A68206803F0A4FDEE
:104710002068806840F480402168886027E0EA686B
:104720006968206803F088FE5021206803F09FFD2F
:104730001DE0EA686968206803F091FE6021206846
:1047400003F095FD13E0EA686968206803F074FEE1
:104750004021206803F08BFD09E000BF00BF00BFCF
:104760002968206803F083FD01E0012700BF00BF36
:10477000012084F83D0000BF002084F83C0000BF09
:10478000384684E7704770B504462068C5682068DD
:10479000066906F00200022819D105F0020002287D
:1047A00015D1401F216808610120207720688069A9
:1047B00000F0030018B12046FFF7E4FF05E02046B3
:1047C00000F0C8F8204600F07CF90020207706F0C1
:1047D0000400042819D105F00400042815D1C043B1
:1047E00021680861022020772068806900F4407009
:1047F00018B12046FFF7C6FF05E0204600F0AAF8F2
:10480000204600F05EF90020207706F00800082816
:1048100019D105F00800082815D1C04321680861A6
:10482000042020772068C06900F0030018B12046FA
:10483000FFF7A8FF05E0204600F08CF8204600F0C6
:1048400040F90020207706F01000102819D105F05B
:104850001000102815D1C043216808610820207776
:104860002068C06900F4407018B12046FFF78AFF45
:1048700005E0204600F06EF8204600F022F9002006
:10488000207706F0010048B105F0010030B16FF06B
:10489000010021680861204600F014F906F080004C
:1048A000802809D105F08000802805D1C043216807
:1048B00008612046FFF7C2FD06F04000402809D1FC
:1048C00005F04000402805D1C0432168086120461A
:1048D00000F004F906F02000202809D105F020009E
:1048E000202805D1C043216808612046FFF7A7FDB5
:1048F00070BD000010B586B00446142101A8FCF775
:1049000069FB1149206888421CD100BF002000903B
:104910000E48006840F020000C4908600846006816
:1049200000F02000009000BF00BF40200190022056
:1049300002900020039004900320059001A90448F0
:10494000FDF7F6FE06B010BD0044014030380240CD
:104950000014024070472DE9F04104460D4616460A
:10496000002700BF94F83C00012802D10220BDE8D6
:10497000F081012084F83C0000BF36B1042E1BD02A
:10498000082E31D00C2E5ED145E02946206803F078
:1049900077FC2068806940F0080021688861206801
:1049A000806920F004002168886120688069296995
:1049B00008432168886148E02946206803F098FC94
:1049C0002068806940F400602168886120688069FF
:1049D00020F480602168886120688069296940EA44
:1049E00001202168886130E02946206803F0BEFC80
:1049F0002068C06940F008002168C8612068C0696B
:104A000020F004002168C8612068C0692969084352
:104A10002168C86119E02946206803F0E3FC20689A
:104A2000C06940F400602168C8612068C06920F452
:104A300080602168C8612068C069296940EA012056
:104A40002168C86101E0012700BF00BF00BF00204E
:104A500084F83C0000BF384689E710B504460CB91D
:104A6000012010BD94F83D0028B9002084F83C00D6
:104A7000204600F025F8022084F83D00211D206822
:104A800003F07AFB012084F8460000BF84F83E0062
:104A900001213F200155402001554120015500BF13
:104AA00000BF012084F842004320015544200155F5
:104AB0004520015500BF012084F83D000020D0E7CB
:104AC0007047704710B5044603492068884201D1F9
:104AD000FDF734FF10BD0000000C00407047704728
:104AE000704700002DE9F84F0446206805682068EB
:104AF000C668206847694FF00009CA4605F00F09EB
:104B0000B9F1000F0AD105F0200038B106F02000FD
:104B100020B1204603F006FDBDE8F88FB9F1000F83
:104B20007CD007F0010018B906F49070002875D009
:104B300005F0010030B106F4807018B1606C40F0EF
:104B40000100606405F0040030B107F0010018B105
:104B5000606C40F00200606405F0020030B107F0C4
:104B6000010018B1606C40F00400606405F00800BA
:104B700048B106F0200010B907F0010018B1606CD0
:104B800040F008006064606C002846D005F020000A
:104B900028B106F0200010B1204603F0C3FC2068C5
:104BA0004069C0F3801A606C00F0080010B9BAF1D7
:104BB000000F2DD0204603F06FFC2068406900F004
:104BC0004000402820D100BF00BF2168143151E8C7
:104BD000001F21F040002168143141E80002002A42
:104BE000F3D100BFE06B50B17F48E16B0865E06B2B
:104BF000FDF7DFFB88B1E06B016D88470DE02046D3
:104C0000FFF76EFF09E009E02046FFF769FF04E0C7
:104C10002046FFF765FF002060647DE7206B0128D8
:104C200078D105F01000002874D006F0100000289C
:104C3000FAD000BF00200090206800680090206833
:104C40004068009000BF00BF2068406900F040004D
:104C5000402870D1E06B006840681FFA80F8B8F116
:104C6000000F58D0A08D404555DDA4F82E80E06B94
:104C7000C069B0F5807F43D000BF00BF21680C3110
:104C800051E8001F21F4807021680C3141E80002D6
:104C9000002AF3D100BF00BF00BF2168143151E8E2
:104CA000001F21F001002168143141E80002002AB0
:104CB000F3D100BF00BF00BF2168143151E8001FCD
:104CC00021F040002168143141E80002002AF3D1AC
:104CD00000BF202084F842000020206300BF00BFF6
:104CE00021680C3151E8001F21F0100021680C31BF
:104CF00041E80002002AF3D100BFE06BFDF703FB9F
:104D000002206063A08DE28D801A81B22046FFF7F9
:104D1000E6FE0EE052E0A08D40450AD1E06BC0698E
:104D2000B0F5807F05D102206063A18D2046FFF79A
:104D3000D6FEF1E6FFE7A08DE18D401A1FFA80F85C
:104D4000E08DD0B3B8F1000F37D000BF00BF2168AD
:104D50000C3151E8001F21F4907021680C3141E8BA
:104D60000002002AF3D100BF00BF00BF2168143148
:104D700051E8001F21F001002168143141E80002D0
:104D8000002AF3D100BF202084F8420000202063D5
:104D900000BF00BF21680C3151E8001F21F0100056
:104DA00021680C3141E80002002AF3D100BF022043
:104DB000606341462046FFF792FEADE605F08000B5
:104DC00030B106F0800018B1204603F03FFDA3E6A5
:104DD00005F0400030B106F0400018B1204603F065
:104DE00091FB99E600BF97E68784000810B504465A
:104DF0000CB9012010BDA06900B100E000BF94F81B
:104E0000410028B9002084F84000204600F02AF82C
:104E1000242084F841002068C06820F400502168F4
:104E2000C860204603F0FCFB2068006920F4904035
:104E3000216808612068406920F02A0021684861E3
:104E40002068C06840F400502168C8600020606499
:104E5000202084F8410084F842000020606300BFF5
:104E6000C8E7000010B586B00446142101A8FCF77D
:104E7000B1F85E492068884259D100BF00200090F7
:104E80005B48006840F48020594908600846006883
:104E900000F48020009000BF00BF00BF0020009001
:104EA00053481038006840F0040051491039086038
:104EB0000846006800F00400009000BF00BF4FF4F7
:104EC0004060019002200290002003900320049093
:104ED0000720059001A94748FDF72AFC46484749A5
:104EE00008604FF000604860002144488160C16064
:104EF0004FF480610161002141618161C1614FF422
:104F00004031016200214162FDF788FB08B1FCF7E6
:104F1000F0FC00BF3948E063846300BF0022052134
:104F20002720FDF7CDFD2720FDF7B6FD5CE03449D5
:104F30002068884258D100BF002000902C48001DF6
:104F4000006840F020002A49091D086008460068F2
:104F500000F02000009000BF00BF00BF00200090C4
:104F600023481038006840F040002149103908609B
:104F70000846006800F04000009000BF00BF4FF4FA
:104F800084400190022002900020039003200490AE
:104F90000820059001A91B48FDF7CAFB1A481B49C8
:104FA00008604FF02060486040211848816000216F
:104FB000C1604FF480610161002141618161C16183
:104FC00001624162FDF72AFB08B1FCF792FC00BFC9
:104FD0000E48A063846300BF002205214720FDF72F
:104FE0006FFD4720FDF758FD06B010BD004800409A
:104FF0004038024000080240286002406C07002050
:105000000014014000180240A0640240CC070020B8
:1050100070472DE9F84F04460E46174699464FF063
:10502000000A94F84100202850D106B117B9012098
:10503000BDE8F88F00206064212084F84100FDF76E
:1050400077FC8246A784E784A068B0F5805F04D12E
:10505000206910B90025B04602E035464FF000083F
:105060001EE05346002280212046CDF8009003F038
:105070001DFC20B1202084F841000320D8E745B969
:10508000B8F80000C0F308002168486008F1020881
:1050900003E02878216848606D1CE08C401EE084A5
:1050A000E08C0028DDD15346002240212046CDF877
:1050B000009003F0FBFB20B1202084F84100032086
:1050C000B6E7202084F841000020B1E70220AFE7D6
:1050D0007047000070B5044600202074A37B484D43
:1050E0002D8803FB05F26168D4F8F400FBF71EFF7E
:1050F000A27B434B1B8802FB03F16068FBF76AFF4E
:10510000A27B3F4B1B885A43A37B02FB03F1D4F8DD
:105110001801FBF75FFF227B394B1B885A43A37BA7
:1051200002FB03F1D4F80C01FBF754FF002031E03F
:10513000D4F8F41001EB800191ED000AB5EEC00A3D
:10514000F1EE10FA24D0D4F8F41001EB800191EDC7
:10515000000A227CD4F8F41001EB820181ED000AF0
:10516000227C616A8854A16901EB800191ED000AFB
:105170006169095C227B237C12FB0311491ED4F870
:105180000C2102EB810181ED000A217C491C217474
:10519000411CC8B2A17B8142CADC002011E0626AD6
:1051A000125CE16901EB820191ED000A227C00FBB7
:1051B0000202D4F8181101EB820181ED000A411CB2
:1051C000C8B2217C8142EADC207CA4F87800217BF3
:1051D0007A200153207BA4F88000217C8220015397
:1051E000207CA4F89000217C92200153207BA4F81D
:1051F0009800217C9A200153207CA4F8480070BDBF
:105200000001002000BFFEE71FB50C4A0C490D4805
:10521000FCF7F6F8002000900190029003909FEDBB
:105220000A2ADFED0A1A9FED0A1ADFED0A0AB2EE2A
:10523000040A684600F02CF91FBD0000A000002001
:10524000F0450020E4450020E030D139C9E57F3F3A
:10525000002474496F12833A10B5044654F8EC0FD9
:1052600090ED000A834880ED000A206890ED010A65
:10527000814880ED000A206890ED020A7F4880EDA9
:10528000000A54F8EC0990ED030A7D4880ED000A0D
:105290007848D0ED000A60EEA00A774890ED001A39
:1052A000D0ED001A41EE210A744890ED001AD0EDBD
:1052B000001A41EE210A724890ED001AD0ED001A52
:1052C00041EE210AB0EE600A07F0BAFB6D4880EDAE
:1052D000000A002012E0D4F8EC1001EB800191EDFF
:1052E000000A6849D1ED000A20EE200AD4F8EC103B
:1052F00001EB800181ED000A411CC8B20428EADB01
:10530000614890ED6F0A5C48D0ED000A20EE200A5B
:10531000F0EE000A80EE201AF834A06880ED041A3E
:10532000594890ED6F0A5548D0ED000A20EE200A4A
:10533000F0EE000A80EE201AA06880ED051A5248AF
:1053400090ED6F0A4B48D0ED000AF1EE600A20EEB6
:10535000200AF0EE000A80EE201AA06880ED0A1AFA
:10536000494890ED6F0A4648D0ED000A20EE200A29
:10537000F0EE000A80EE201AA06880ED0B1A424879
:1053800090ED6F0A3E48D0ED000AF1EE600A20EE83
:10539000200AF0EE000A80EE201AA06880ED101AB4
:1053A000394890ED6F0A3348D0ED000AF1EE600AFB
:1053B00020EE200AF0EE000A80EE201AA06880EDB0
:1053C000111A314890ED6F0A2C48D0ED000A20EEFA
:1053D000200AF0EE000A80EE201AA06880ED161A6E
:1053E000294890ED6F0A2448D0ED000AF1EE600ADA
:1053F00020EE200AF0EE000A80EE201AA06880ED70
:10540000171A206890ED1C0A1F48D0ED740A80EE30
:10541000201A206880ED1C1A206890ED230A1A4893
:10542000D0ED740A80EE201A206880ED231A54F81B
:10543000F80990ED1C0ADFED150AB4EEE00AF1EE72
:1054400010FA05DD9FED110AD4F8F80080ED1C0A72
:10545000D4F8F80090ED230ADFED0C0AB4EEE00A70
:10546000F1EE10FA05DD9FED090AD4F8F80080EDA1
:10547000230A10BDA4010020A8010020AC010020D7
:10548000B0010020B40100203847002000401C4635
:1054900010B52DED068B0446F0EE408AB0EE609A12
:1054A000F0EE419AB0EE618AB0EE42AA0120354991
:1054B00008700846C0ED6C8A80ED6D9AC0ED6E9A5A
:1054C0009FED310A80ED730A002081F838010A4609
:1054D000C2F84001C2F844010021C2F84811C2F8E4
:1054E0004C11B7EE000AB4EEC08AF1EE10FA03DDFB
:1054F000B7EE000AB0EE408A224880ED748A80ED53
:1055000064AA032300220621001D01F01DF81F4B91
:1055100001221146A3F10800FAF7AEFF00200BE0CC
:1055200004EB800191ED000A1649D1F8EC1001EB73
:10553000800181ED000A401C0428F1DB1449114868
:10554000C0F8D0101349C0F8D4101349C0F8D810CF
:105550001249C0F8DC10012180F82E1080F82F10BD
:1055600001469022D1F804010D49FBF7DFFC054903
:105570009022D1F8FC000B49FBF7D8FCBDEC068B60
:1055800010BD00003847002077CC2B3200490020A6
:10559000A955000859520008DD550008F55C0008BF
:1055A000F40401080401002010B5044654F8F81F63
:1055B00090220748FBF7BAFC48220648616AFBF7CD
:1055C000B5FC6169F83C48220348FBF7AFFC10BD0D
:1055D00004010020184900206049002010B504464D
:1055E00054F8EC0F90ED000AF0EE000A20EE200ACD
:1055F0003F4880ED000A206890ED010AF0EE000AB5
:1056000020EE200A3B4880ED000A206890ED020A57
:10561000F0EE000A20EE200A374880ED000A2068EC
:1056200090ED030AF0EE000A20EE200A334880EDE8
:10563000000A14F8DE2C324B1B885A4314F8E03C65
:1056400002FB03F1206AFBF7C5FC2B4890ED000A32
:10565000B1EE400A206A80ED000A284890ED000A69
:10566000206A80ED010A224890ED000AB1EE400A5E
:10567000206A80ED020A1F4890ED000A206A80ED42
:10568000030A1C4890ED000A206A80ED060A1848BB
:1056900090ED000A206A80ED070A184890ED000A94
:1056A000206A80ED080A144890ED000A206A80ED17
:1056B000090A0F4890ED000A206A80ED0C0A0D4897
:1056C00090ED000AB1EE400A206A80ED0D0A0A480A
:1056D00090ED000AB1EE400A206A80ED0E0A0748FC
:1056E00090ED000A206AEC3C80ED0F0A10BD00002E
:1056F000B8010020BC010020C0010020C40100202E
:105700000001002010B52DED088BB0EE40AAF0EEA0
:1057100060AAB0EE41BAF0EE618AB0EE429AF0EEC5
:10572000629AB0EE438AFE4880ED6F8A90ED580A87
:105730003AEE400A80ED5B0A90ED590A3AEEC00A53
:1057400080ED5C0A90ED5A0A3BEE400A80ED5D0A5E
:1057500090ED5B0AF6EE000A20EE200A20EE080A21
:10576000F04880ED000AEE4890ED5C0AF6EE000A83
:1057700020EE200A20EE080AEB4880ED000AE848F7
:1057800090ED5D0AF6EE000A20EE200A20EE080AEF
:10579000E64880ED000AE2499022D1F80401E4498C
:1057A000FBF7C4FBDF4890ED000AB1EE400ADC488D
:1057B000D0F8040180ED010ADB4890ED000AB1EE5B
:1057C000400AD748D0F8040180ED020AD74890ED8E
:1057D000000AB1EE400AD248D0F8040180ED030A75
:1057E000D04890ED000ACE48D0F8040180ED060ABA
:1057F000CE4890ED000ACA48D0F8040180ED080AAE
:10580000C94890ED000AB1EE400AC548D0F804013D
:1058100080ED090AC44890ED000AC148D0F804019F
:1058200080ED0C0AC14890ED000AB1EE400ABC4878
:10583000D0F8040180ED0D0ABA4890ED000AB8488E
:10584000D0F8040180ED0F0AB84890ED000AB44882
:10585000D0F8040180ED120AB34890ED000AB04878
:10586000D0F8040180ED130AAE4890ED000AB1EEC5
:10587000400AAB48D0F8040180ED140AA848D0F8DB
:105880004811D0F84C01002359405840014306D13B
:10589000A348C0ED5E8A80ED5F9AC0ED609AA04893
:1058A00090ED5E0AD0ED640A60EE200A90ED6F0A7A
:1058B00090ED641A30EE011A80EE810AD0ED6F0A85
:1058C00090ED641A70EE810A90ED6F1A21EE281A9D
:1058D000C1EE201A30EE210A80ED5E0A90ED5F0ADB
:1058E000D0ED640A20EE200AD0ED6F0A90ED641A24
:1058F00030EE811AC0EE010A90ED6F0A90ED641A45
:1059000030EE010A90ED6F1A21EE091AC1EE001A6D
:1059100030EEA10A80ED5F0A90ED600AD0ED640AD6
:1059200020EE200AD0ED6F0A90ED641A30EE811A55
:10593000C0EE010A90ED6F0A90ED641A30EE010A94
:1059400090ED6F1A21EE291AC1EE001A30EEA10A6D
:1059500080ED600AD0ED5E0A60EEA00A90ED5F1A5D
:10596000D0ED5F1A41EE210A90ED601AD0ED601A79
:1059700041EE210AB0EE600A07F062F86D4880ED52
:10598000000A002011E06C4901EB800191ED000A52
:105990006849D1ED000A20EE200A6149896801EBCF
:1059A000800181ED000A411CC8B20328EBDB5C4892
:1059B000D0ED5B0A60EEA00A90ED5C1AD0ED5C1AA7
:1059C00041EE210A90ED5D1AD0ED5D1A41EE210AFB
:1059D000B0EE600A07F034F8F7EE000A80EE801AA5
:1059E0004F4880ED651A534890ED000AF7EE000A23
:1059F00080EE801A4A4880ED661A90ED650ADFED68
:105A00004F0AB4EEE00AF1EE10FA16D290ED660AF3
:105A1000DFED4B0AB4EEE00AF1EE10FA0DDD90ED89
:105A2000660ADFED480AB4EEE00AF1EE10FA04D29D
:105A300001203B4981F8390103E00020384981F811
:105A40003901374890ED6C0AD0ED6F0A20EE200A3C
:105A5000D0F8180180ED000A314890ED6C0AD0EDC5
:105A60006F0A20EE200AD0F8180180ED070A2C48B2
:105A700090ED6C0AD0ED6F0A20EE200AD0F81801E4
:105A800080ED0E0A264890ED6C0AD0ED6F0A20EEEC
:105A9000200AD0F8180180ED150A214890ED6D0A12
:105AA000D0ED6F0A20EE200AD0F8180180ED1C0A14
:105AB0001B4890ED6D0AD0ED6F0A20EE200AD0F859
:105AC000180180ED230A164890ED6E0AD0F81C01EB
:105AD00080ED000A124890ED6E0AD0F81C0180EDAE
